:020000040000FA
:100000000C9463000C94CF0C0C94A80C0C94F60C7C
:100010000C94F60C0C94F60C0C948B000C948B0046
:100020000C948B000C948B000C948B000C948B0024
:100030000C948B000C946E0D0C948B000C948B0024
:100040000C945E0C0C948B000C942C0C0C94060CF1
:100050000C948B000C948B000C948B000C948B00F4
:100060000C948B000C948B000000000024002700EF
:100070002A0000000008000201000003040700003D
:1000800000000000000000000000230026002900FE
:1000900000000000250028002B00040404040404D0
:1000A0000404020202020202030303030303010227
:1000B00004081020408001020408102001020408F6
:1000C0001020950D4C1F11241FBECFEFD8E0DEBFCE
:1000D000CDBF14E0A0E0B1E0EAECF4E402C005908A
:1000E0000D92AC38B107D9F726E0ACE8B4E001C016
:1000F0001D92AF33B207E1F710E0C2E6D0E004C0D2
:100100002197FE010E944B22C136D107C9F70E94F8
:10011000530E0C9458220C940000CF92DF92EF9271
:10012000FF926B017C01E0918B05F0918C0582E0E0
:100130008083C11481EED806E104F104A1F060E0EF
:1001400079E08DE390E0A70196010E9454202150B0
:10015000310941095109569547953795279521153C
:1001600080E13807A8F0E0918B05F0918C051082B2
:1001700060E874E88EE190E0A70196010E945420A7
:1001800021503109410951095695479537952795D1
:10019000E0918705F09188053083E0918905F09121
:1001A0008A05208310929305E0918F05F0919005C8
:1001B00086E08083E0918D05F0918E0580818061DD
:1001C0008083E0918D05F0918E0580818860808329
:1001D000E0918D05F0918E05808180688083E091AB
:1001E0008D05F0918E0580818F7D8083FF90EF904B
:1001F000DF90CF9008959B01AC01109237061092CA
:10020000360610923506109234061092330610927C
:10021000320660E079E08DE390E00E942220B9018F
:10022000C90103972430310510F481E090E09093E8
:1002300039068093380690912806963108F05FC001
:10024000F901F695E795E431F10508F488C0739754
:10025000F0933306E09332066630710508F482C0ED
:10026000B901655071097093350660933406B90180
:10027000660F771F260F371F3695279536952795DA
:100280002D30310508F471C02C50310930933706F8
:10029000209336062091680084E0983048F031E0E1
:1002A0009E3008F430E081E001C0880F3A95EAF70B
:1002B000822B809368002DE630E0983050F02BE6DA
:1002C00030E09E3030F02CE630E0963110F030E037
:1002D00020E03093300620932F06292F30E098300D
:1002E00008F046C081E001C0880F9A95EAF7809334
:1002F000310680913806909139060197F1F7809187
:10030000360690913706892B49F1E0917905F091F5
:100310007A0586E0EC31F80709F1309739F0A389C6
:10032000B4899C918589809589238C9380913A0624
:100330008E7F80933A0610927805109277058CE1B3
:1003400096E090937A0580937905E0912F06F091DD
:100350003006808190913106892B80830895E1E0F9
:10036000F0E076CF61E070E07ECF21E030E08ECF2C
:100370009E3040F42850310981E001C0880F2A9551
:10038000EAF7B5CF2E503109F7CF80916E058F5F18
:1003900080936E0508950895AF92BF92CF92DF9239
:1003A000EF92FF920F931F93CF93DF936C017B012A
:1003B0008B01040F151FEB015E01AE18BF08C017BB
:1003C000D10759F06991D601ED91FC910190F0812E
:1003D000E02DC6010995892B79F7C501DF91CF91F1
:1003E0001F910F91FF90EF90DF90CF90BF90AF9053
:1003F0000895FC01538D448D252F30E0842F90E02B
:10040000821B930B541710F0CF960895019708950F
:10041000FC01918D828D981761F0A28DAE0FBF2FD8
:10042000B11D5D968C91928D9F5F9F73928F90E02E
:1004300008958FEF9FEF0895FC01918D828D98179D
:1004400031F0828DE80FF11D858D90E008958FEFDA
:100450009FEF0895FC01918D228D892F90E0805CA3
:100460009F4F821B91098F73992708958BE795E021
:100470000E942A0221E0892B09F420E0822F0895AE
:1004800080E090E0892B29F00E94360281110C94C3
:1004900000000895FC01A48DA80FB92FB11DA35A27
:1004A000BF4F2C91848D90E001968F739927848F94
:1004B000A689B7892C93A089B1898C9183708064B7
:1004C0008C93938D848D981306C00288F389E02D58
:1004D00080818F7D80830895EF92FF920F931F9309
:1004E000CF93DF93EC0181E0888F9B8D8C8D9813E7
:1004F0001AC0E889F989808185FF15C09FB7F894F3
:10050000EE89FF896083E889F9898081837080643E
:1005100080839FBF81E090E0DF91CF911F910F9189
:10052000FF90EF900895F62E0B8D10E00F5F1F4F98
:100530000F731127E02E8C8D8E110CC00FB607FCA7
:10054000FACFE889F989808185FFF5CFCE010E9435
:100550004A02F1CFEB8DEC0FFD2FF11DE35AFF4F57
:10056000F0829FB7F8940B8FEA89FB8980818062C3
:10057000CFCFCF93DF93EC01888D8823B9F0AA8980
:10058000BB89E889F9898C9185FD03C0808186FD4E
:100590000DC00FB607FCF7CF8C9185FFF2CF80819D
:1005A00085FFEDCFCE010E944A02E9CFDF91CF91C6
:1005B0000895833081F028F4813099F08230A9F0D9
:1005C00008958730A9F08830C9F08430B1F4809163
:1005D00080008F7D03C0809180008F7780938000A2
:1005E000089584B58F7784BD089584B58F7DFBCF42
:1005F0008091B0008F778093B00008958091B00013
:100600008F7DF9CFCF93DF93282F30E0F901EE589B
:10061000FF4F8491F901E255FF4FD491F901E6565D
:10062000FF4FC491CC23A1F081110E94D902EC2F7D
:10063000F0E0EE0FFF1FEA57FF4FA591B491EC9148
:10064000ED2381E090E009F480E0DF91CF910895FF
:1006500080E090E0FACF1F93CF93DF93282F30E014
:10066000F901EE58FF4F8491F901E255FF4FD49103
:10067000F901E656FF4FC491CC23A9F0162F811142
:100680000E94D902EC2FF0E0EE0FFF1FE057FF4F62
:10069000A591B4918FB7F894EC91111108C0D09541
:1006A000DE23DC938FBFDF91CF911F910895DE2B66
:1006B000F8CFCF93DF9390E0FC01E255FF4F2491F8
:1006C00086569F4FFC0184918823D1F090E0880FDB
:1006D000991FFC01E859FF4FA591B491FC01E05727
:1006E000FF4FC591D49161110EC09FB7F8948C91C2
:1006F000E22FE0958E238C932881E223E8839FBF2D
:10070000DF91CF9108958FB7F894EC91E22BEC93A1
:100710008FBFF6CF8E3008F08E5087708064809344
:100720007C0080917A00806480937A0080917A00C6
:1007300086FDFCCF809178009091790008953FB7B5
:10074000F8948091D4049091D504A091D604B091EE
:10075000D70426B5A89B05C02F3F19F00196A11D0F
:10076000B11D3FBFBA2FA92F982F8827BC01CD01FB
:10077000620F711D811D911D42E0660F771F881F5A
:10078000991F4A95D1F708952091790530917A05FE
:100790002817390771F4909177058091780598179B
:1007A00041F0E0917705F0E0ED56FB4F808190E05D
:1007B00008958FEF9FEF08950895EF92FF920F93A2
:1007C0001F93CF93DF93DC015C96ED90FC905D97D7
:1007D000E114F10479F481E090E013969C938E93F8
:1007E000129790E080E0DF91CF911F910F91FF90E1
:1007F000EF9008955196ED91FC91529750968C91FF
:100800005097982F90950FB75E962C915E97122F68
:10081000127021FD6095F8942081112319F1282B85
:100820002083E7012197F1F728E0462F50E030813F
:1008300060FF1AC0382B3083E7012197F1F7BA0126
:1008400075956795215089F7112381F0808189235F
:1008500080830FBF5C968D919C910197F1F781E0A9
:1008600090E0C1CF2923DCCF3923E5CF9081892BBC
:10087000EFCF2091790530917A052817390771F467
:10088000809178052091770590E0805C9F4F821BD6
:10089000910960E470E00E943722089590E080E0C2
:1008A00008952091790530917A0528173907B9F410
:1008B0009091770580917805981789F0E0917705F8
:1008C000F0E0ED56FB4F80812091770530E02F5FFF
:1008D0003F4F2F7333272093770590E008958FEFD4
:1008E0009FEF089590E080E008950895CF93DF93FF
:1008F00080916A0590916B058F5D934F20916805FB
:10090000309169058217930709F048C0C0913A05F4
:10091000D0913B0561E089E00E94590380918000FD
:10092000806880938000A0919104B09192049E0110
:100930000E9476202AE096958795779567952A9567
:10094000D1F7709389006093880080919004806152
:1009500080938100C0912E05D0912F0561E08AE03F
:100960000E94590380918000806280938000A09152
:100970009104B09192049E010E9476203AE09695EF
:100980008795779567953A95D1F770938B0060932B
:100990008A0080919004806180938100DF91CF91E3
:1009A0000895FB0101900020E9F73197AF01461B44
:1009B000570BDC01ED91FC910280F381E02D09944D
:1009C0008F929F92AF92BF92EF92FF920F931F93DD
:1009D000CF93DF93CDB7DEB7A1970FB6F894DEBF04
:1009E0000FBECDBF7C01FA01CB0119A2223008F461
:1009F0002AE08E010F5D1F4F822E912CB12CA12C6D
:100A0000BF01A50194010E945420F901CA016A3076
:100A10000CF5605DD8016E938D01232B242B252BC3
:100A200079F790E080E0109721F0BD01C7010E94A6
:100A3000D104A1960FB6F894DEBF0FBECDBFDF91F3
:100A4000CF911F910F91FF90EF90BF90AF909F902B
:100A50008F900895695CDECFCF92DF92EF92FF9284
:100A60000F931F93CF93DF936B01770FEE08FF086F
:100A70004A30510511F52AE0F7FE20C0EC01E8816B
:100A8000F9810190F081E02D6DE209958C014427F8
:100A90005527BA014C195D096E097F092AE0CE017C
:100AA0000E94E004800F911FDF91CF911F910F9161
:100AB000FF90EF90DF90CF900895242FB701A6010B
:100AC000DF91CF911F910F91FF90EF90DF90CF902A
:100AD0000C94E0046CE371E00C94D1040F931F9329
:100AE000CF93DF93EC01AB0170E060E02AE00E945D
:100AF000E0048C01CE010E946A05800F911FDF91F6
:100B0000CF911F910F9108950F931F93CF93DF9370
:100B1000EC010E94D1048C01CE010E946A05800F75
:100B2000911FDF91CF911F910F9108950C94D104E3
:100B30000C9414200C940C20CF9380E180938100BE
:100B40001092800081E08093900420EA3FE030938F
:100B5000920420939104309387002093860091E1C2
:100B60009093810026E734E0309301012093000147
:100B700080936F0060E08DE00E94590361E08CE09B
:100B80000E94590360E082E00E94590360E083E024
:100B90000E94590360E084E00E94590360E085E010
:100BA0000E94590361E086E00E94590361E087E0FA
:100BB0000E94590361E088E00E94590361E089E0E6
:100BC0000E94590361E08AE00E94590361E08BE0D2
:100BD0000E94590390E080E00E949A05C82F90E09F
:100BE000909309058093080581E090E00E949A05A2
:100BF00090E0909313018093120182E090E00E94B4
:100C00009A0590E090932D0580932C0583E090E069
:100C10000E949A0590E0909307058093060584E072
:100C200090E00E949A0590E090930505809304055A
:100C300085E090E00E949A0590E0909303058093F0
:100C4000020586E090E00E949A0590E090930105ED
:100C50008093000587E090E00E949A0590E09093D1
:100C6000FF048093FE0488E090E00E949A0590E0E3
:100C70009093FD048093FC0489E090E00E949A0523
:100C800090E090934505809344058AE090E00E94AF
:100C90009A0590E090933705809336058BE090E0BD
:100CA0000E949A0590E09093700580936F058CE008
:100CB00090E00E949A0590E09093110180931001BA
:100CC0008DE090E00E949A0590E090930F01809350
:100CD0000E018EE090E00E949A0590E090930D0145
:100CE00080930C018FE090E00E949A0590E0909331
:100CF0000B0180930A0180E190E00E949A0590E048
:100D0000909309018093080181E190E00E949A0587
:100D100090E0909307018093060182E190E00E94A9
:100D20009A0590E0909376058093750583E190E0B5
:100D30000E949A0590E0909343058093420584E1D8
:100D400090E00E949A0590E09093390580933805D1
:100D5000C150C43058F081E090E090930905809331
:100D6000080561E090E080E00E9498058091120102
:100D7000909113010197029748F081E090E09093E1
:100D800013018093120161E00E94980580912C0567
:100D900090912D050197029748F082E090E09093A2
:100DA0002D0580932C0562E00E94980580914405F2
:100DB00090914505029758F081E090E090934505A9
:100DC0008093440561E089E090E00E94980580915D
:100DD000360590913705029758F081E090E09093A6
:100DE00037058093360561E08AE090E00E9498051F
:100DF00080916F0590917005892B59F483E090E004
:100E00009093700580936F0563E08BE090E00E9403
:100E100098058091100190911101892B29F461E0CE
:100E20008CE090E00E94980580910E0190910F0156
:100E3000892B29F461E08DE090E00E949805809173
:100E40000C0190910D01892B29F461E08EE090E076
:100E50000E94980580910A0190910B01892B29F439
:100E600061E08FE090E00E949805809108019091E8
:100E70000901892B29F461E080E190E00E94980546
:100E80008091060190910701892B29F461E081E1AD
:100E900090E00E94980580917505909176050297E3
:100EA00048F0109276051092750560E082E190E0BE
:100EB0000E9498058091420590914305892B29F461
:100EC0006EE183E190E00E94980580913805909151
:100ED0003905039748F0109239051092380560E003
:100EE00084E190E00E9498058091080590910905A1
:100EF0008230910509F480C40CF066C4019709F4AE
:100F00006EC483E00E940203892B21F461E083E038
:100F10000E94590380912C0590912D05019709F0AD
:100F2000CAC183E00E940203019709F0B6C160E8DC
:100F300075E280E090E00E94FB008CE196E00E9468
:100F40006A056FE371E08CE196E00E9496058CE102
:100F500096E00E946A056AE471E08CE196E00E94E6
:100F600096058CE196E00E946A0567E571E08CE1E8
:100F700096E00E94960560910605709107054AE08B
:100F800050E08CE196E00E942C0560910405709180
:100F900005054AE050E08CE196E00E942C05609146
:100FA0000205709103054AE050E08CE196E00E9452
:100FB0002C0560910005709101054AE050E08CE13C
:100FC00096E00E942C056091FE047091FF044AE0B7
:100FD00050E08CE196E00E942C056091FC04709139
:100FE000FD044AE050E08CE196E00E942C058CE183
:100FF00096E00E946A058CE196E00E946A0568E628
:1010000071E08CE196E00E9496058CE196E00E94EA
:101010006A056CE971E08CE196E00E9496058CE12E
:1010200096E00E946A0566EC71E08CE196E00E9411
:1010300096058CE196E00E946A0564EF71E08CE110
:1010400096E00E9496058CE196E00E946A058CE18C
:1010500096E00E946A0569E172E08CE196E00E94E8
:1010600096058CE196E00E946A0562E472E08CE1EC
:1010700096E00E9496058CE196E00E946A058CE15C
:1010800096E00E946A0561E772E08CE196E00E94BA
:1010900096058CE196E00E946A0565E972E08CE1B4
:1010A00096E00E9496058CE196E00E946A0562EB4C
:1010B00072E08CE196E00E9496058CE196E00E9439
:1010C0006A0567ED72E08CE196E00E9496058CE17E
:1010D00096E00E946A056DEE72E08CE196E00E9457
:1010E00096058CE196E00E946A058CE196E00E94EC
:1010F0006A0560E173E08CE196E00E9496058CE160
:1011000096E00E946A058CE196E00E946A0561E320
:1011100073E08CE196E00E9496058CE196E00E94D7
:101120006A0540918C0450918D0460918E047091F9
:101130008F042AE08CE196E00E94E00464E674E00B
:101140008CE196E00E9496058CE196E00E946A058B
:101150008091120190911301019731F46FE373E0D4
:101160008CE196E00E948405809112019091130118
:10117000029731F460E573E08CE196E00E9484050B
:101180008091440590914505019731F463E673E041
:101190008CE196E00E94840580914405909145057C
:1011A000892B31F46DE773E08CE196E00E948405B1
:1011B0008091360590913705019731F468E973E025
:1011C0008CE196E00E948405809136059091370568
:1011D000892B31F468EB73E08CE196E00E94840582
:1011E0008091750590917605019731F469ED73E072
:1011F0008CE196E00E9484058091750590917605BA
:10120000892B31F466EE73E08CE196E00E94840550
:101210008091380590913905019731F464EF73E0BE
:101220008CE196E00E948405809138059091390503
:10123000892B31F46BE074E08CE196E00E94840528
:10124000809142059091430524E6289FB001299F93
:10125000700D11244AE050E08CE196E00E942C05CC
:1012600063E274E08CE196E00E94840540916F0592
:101270005091700570E060E02AE08CE196E00E94F9
:10128000E0046CE274E08CE196E00E94840566E381
:1012900074E08CE196E00E94840560918C0470916A
:1012A0008D0480918E0490918F040E948D008BE7B5
:1012B00095E00E946A0580912C0590912D0502977A
:1012C00009F0CAC183E00E940203019709F0B6C188
:1012D00060E875E280E090E00E948D008BE795E089
:1012E0000E946A056FE371E08BE795E00E94960526
:1012F0008BE795E00E946A056AE471E08BE795E070
:101300000E9496058BE795E00E946A0567E571E00B
:101310008BE795E00E9496056091060570910705A0
:101320004AE050E08BE795E00E942C0560910405AF
:10133000709105054AE050E08BE795E00E942C058E
:1013400060910205709103054AE050E08BE795E05B
:101350000E942C0560910005709101054AE050E063
:101360008BE795E00E942C056091FE047091FF04CC
:101370004AE050E08BE795E00E942C056091FC0468
:101380007091FD044AE050E08BE795E00E942C0547
:101390008BE795E00E946A058BE795E00E946A055D
:1013A00068E671E08BE795E00E9496058BE795E093
:1013B0000E946A056CE971E08BE795E00E94960552
:1013C0008BE795E00E946A0566EC71E08BE795E09B
:1013D0000E9496058BE795E00E946A0564EF71E034
:1013E0008BE795E00E9496058BE795E00E946A05E1
:1013F0008BE795E00E946A0569E172E08BE795E072
:101400000E9496058BE795E00E946A0562E472E00F
:101410008BE795E00E9496058BE795E00E946A05B0
:101420008BE795E00E946A0561E772E08BE795E043
:101430000E9496058BE795E00E946A0565E972E0D7
:101440008BE795E00E9496058BE795E00E946A0580
:1014500062EB72E08BE795E00E9496058BE795E0E2
:101460000E946A0567ED72E08BE795E00E949605A1
:101470008BE795E00E946A056DEE72E08BE795E0E0
:101480000E9496058BE795E00E946A058BE795E040
:101490000E946A0560E173E08BE795E00E94960583
:1014A0008BE795E00E946A058BE795E00E946A054C
:1014B00061E373E08BE795E00E9496058BE795E08A
:1014C0000E946A0540918C0450918D0460918E04B5
:1014D00070918F042AE08BE795E00E94E00464E6B7
:1014E00074E08BE795E00E9496058BE795E00E94FB
:1014F0006A058091120190911301019731F46FE315
:1015000073E08BE795E00E94840580911201909131
:101510001301029731F460E573E08BE795E00E94D8
:1015200084058091440590914505019731F463E667
:1015300073E08BE795E00E948405809144059091CB
:101540004505892B31F46DE773E08BE795E00E9448
:1015500084058091360590913705019731F468E94B
:1015600073E08BE795E00E948405809136059091A9
:101570003705892B31F468EB73E08BE795E00E9427
:1015800084058091750590917605019731F469ED98
:1015900073E08BE795E00E9484058091750590913A
:1015A0007605892B31F466EE73E08BE795E00E94B7
:1015B00084058091380590913905019731F464EFE5
:1015C00073E08BE795E00E94840580913805909147
:1015D0003905892B31F46BE074E08BE795E00E94CC
:1015E0008405809142059091430524E6289FB0012F
:1015F000299F700D11244AE050E08BE795E00E948E
:101600002C0563E274E08BE795E00E94840540912D
:101610006F055091700570E060E02AE08BE795E07F
:101620000E94E0046CE274E08BE795E00E94840580
:1016300066E374E08BE795E00E94840560918C047A
:1016400070918D0480918E0490918F040E94FB0014
:101650008CE196E00E946A0583E00E9402030197F4
:1016600009F070C084E00E940203019709F06AC08B
:1016700085E00E940203019709F064C060E090E0F9
:1016800080E00E94980560E081E090E00E9498056B
:1016900060E082E090E00E94980560E083E090E0E6
:1016A0000E94980560E084E090E00E94980560E068
:1016B00085E090E00E94980560E086E090E00E945E
:1016C000980560E087E090E00E94980560E088E07F
:1016D00090E00E94980560E089E090E00E94980503
:1016E00060E08AE090E00E94980560E08BE090E086
:1016F0000E94980560E08CE090E00E94980560E010
:101700008DE090E00E94980560E08EE090E00E94FD
:10171000980560E08FE090E00E94980560E080E12D
:1017200090E00E94980560E081E190E00E949805B9
:1017300060E082E190E00E94980560E083E190E043
:101740000E94980561E086E00E942B0361E087E03B
:101750000E942B0360E088E00E942B0360E08BE096
:101760000E942B0385EC91E090930301809302018A
:1017700080916900836080936900E89A10926E05F9
:1017800010926D0510926C05109271051092720501
:1017900010927305109274058091120190911301BB
:1017A000019781F40E94B41F2DE538E040E050E03D
:1017B0000E9422206953784F8F4F9F4F70936B0583
:1017C00060936A05CF91089583309105D1F0049715
:1017D00009F097CB80E092ECA1E0B0E004C080E09B
:1017E0009BE4A0E0B0E080938C0490938D04A093E0
:1017F0008E04B0938F0485CB80E096E9A0E0B0E042
:10180000F2CF80E091EEA0E0B0E0EDCF1F920F921A
:101810000FB60F9211242F933F934F935F936F93C3
:101820007F938F939F93AF93BF93EF93FF938BE738
:1018300095E00E944A02FF91EF91BF91AF919F9175
:101840008F917F916F915F914F913F912F910F9069
:101850000FBE0F901F9018951F920F920FB60F9208
:1018600011242F938F939F93EF93FF93E0918B0518
:10187000F0918C058081E0919105F091920582FDB7
:101880001BC09081809194058F5F8F732091950587
:10189000821741F0E0919405F0E0E558FA4F958FFA
:1018A00080939405FF91EF919F918F912F910F90CD
:1018B0000FBE0F901F9018958081F4CF1F920F924A
:1018C0000FB60F9211242F933F938F939F93AF9353
:1018D000BF938091180690911906A0911A06B091B5
:1018E0001B063091D30423E0230F2D3758F50196C2
:1018F000A11DB11D2093D30480931806909319065F
:10190000A0931A06B0931B068091D4049091D5043D
:10191000A091D604B091D7040196A11DB11D80936A
:10192000D4049093D504A093D604B093D704BF9168
:10193000AF919F918F913F912F910F900FBE0F907C
:101940001F90189526E8230F0296A11DB11DD2CF36
:101950001F920F920FB60F9211242F933F934F9324
:101960005F936F937F938F939F93AF93BF93EF9307
:10197000FF93E0910401F09105010995FF91EF912A
:10198000BF91AF919F918F917F916F915F914F9197
:101990003F912F910F900FBE0F901F9018951F929F
:1019A0000F920FB60F9211242F933F934F935F9393
:1019B0006F937F938F939F93AF93BF93EF93FF9317
:1019C000E0910201F09103010995FF91EF91BF9120
:1019D000AF919F918F917F916F915F914F913F91C7
:1019E0002F910F900FBE0F901F9018951F920F927E
:1019F0000FB60F9211242F933F934F935F936F93E2
:101A00007F938F939F93AF93BF93EF93FF93E09157
:101A10007905F0917A05309749F0A685B7858585D7
:101A2000968D91FF14C09C918923A1F4FF91EF91B1
:101A3000BF91AF919F918F917F916F915F914F91E6
:101A40003F912F910F900FBE0F901F9018959C9172
:101A5000892361F7A389B4899C918589809589231D
:101A60008C93868997890197F1F7608D718DA68592
:101A7000B785558538E020E0CB010197F1F7822F3B
:101A800090E095958795282F4C91452309F0206883
:101A9000315091F7868D81FD20958091780590E0F9
:101AA00001968F73992730917705381799F0A09197
:101AB0007805B0E0AD56BB4F2C9380937805828DAE
:101AC000938D0197F1F7A389B4898C919589892B1E
:101AD0008C93ACCF868D8160868FF1CF1F920F9251
:101AE0000FB60F9211242F933F934F935F936F93F1
:101AF0007F938F939F93AF93BF93EF93FF93E09167
:101B00000001F09101010995FF91EF91BF91AF9113
:101B10009F918F917F916F915F914F913F912F9105
:101B20000F900FBE0F901F90189510927E05109287
:101B30007D0588EE93E0A0E0B0E080937F05909370
:101B40008005A0938105B09382052CE131E03093AC
:101B50007C0520937B0525EC30E0309388052093AD
:101B6000870524EC30E030938A052093890520EC2A
:101B700030E030938C0520938B0521EC30E03093DE
:101B80008E0520938D0522EC30E030939005209354
:101B90008F0526EC30E0309392052093910510924A
:101BA00094051092950510929605109297052FB7FF
:101BB000F894409118065091190660911A06709198
:101BC0001B062FBF40933B0650933C0660933D0697
:101BD00070933E0610921F0610921E0680932006F8
:101BE00090932106A0932206B09323068EE291E003
:101BF00090931D0680931C061092330610923206B5
:101C0000109235061092340610923706109236065E
:101C1000109239061092380660913A066E7F6D7FF9
:101C200060933A066695617081E068278CE00E94B7
:101C30002B0361E08CE00E945903EAEBF0E0E491B1
:101C4000E0932C06E6EAF0E0E491F0E0EE0FFF1FEF
:101C5000E057FF4F8591949190932E0680932D0627
:101C600060E08DE00E94590380913A0681FD04C036
:101C700061E08DE00E942B038DE080932806EBEB62
:101C8000F0E0E491E0932906E7EAF0E0E491F0E087
:101C9000EE0FFF1FEA57FF4F8591949190932B060B
:101CA00080932A060895CF93DF93CDB7DEB7609770
:101CB0000FB6F894DEBF0FBECDBF789484B58260B6
:101CC00084BD84B5816084BD85B5826085BD85B5E0
:101CD000816085BD80916E00816080936E0010925E
:101CE00081008091810082608093810080918100D9
:101CF000816080938100809180008160809380006A
:101D00008091B10084608093B1008091B0008160C7
:101D10008093B00080917A00846080937A008091F3
:101D20007A00826080937A0080917A00816080934B
:101D30007A0080917A00806880937A001092C100C6
:101D40000E949C0508EE13E00E949F03C0903B0692
:101D5000D0903C06E0903D06F0903E066C197D095F
:101D60008E099F096035734C8105910570F00E94C2
:101D70009F0360933B0670933C0680933D069093CF
:101D80003E0660E083E00E942B03809175059091F0
:101D90007605009709F023C18EE00E948A03909394
:101DA0001F0580931E058FE00E948A0390931D05F6
:101DB00080931C0580E10E948A0390931B05809309
:101DC0001A0581E10E948A039093190580931805F2
:101DD00082E10E948A03909317058093160583E1A0
:101DE0000E948A03909315058093140584E00E9455
:101DF0000203909313058093120585E00E9402036D
:101E0000909311058093100580916C0590916D055C
:101E100090930F0580930E0510920D0510920C05FE
:101E2000809120059091210590930B0580930A05E0
:101E30000E949F03C0907105D0907205E0907305D9
:101E4000F09074056C197D098E099F096034724405
:101E50008F40910508F456C061E083E00E942B0397
:101E6000E8988BEC91E0909303018093020120911C
:101E70006F053091700550E040E060E077E883E95D
:101E800093E00E94222069017A010E949F03A091A1
:101E90006E05A9838090710590907205A0907305DE
:101EA000B09074059B01AC01281939094A095B09F6
:101EB000C701B6010E945420B9816B2F70E0629F68
:101EC000C001639F900D729F900D112490936D053A
:101ED00080936C050E949F03609371057093720557
:101EE000809373059093740510926E0585EC91E0D4
:101EF0009093030180930201809169008360809335
:101F00006900E89A80916A0590916B058F5D934F07
:101F100020916805309169058217930721F461E0EB
:101F200083E00E942B0383E00E940203019709F0E3
:101F3000DAC480912C0590912D05019709F094C188
:101F40008CE196E00E945104E0EDE80FEF3308F0D9
:101F50008BC10E2E000CFF0BE055F04F0C944B2262
:101F600023118A119811A611B411C411D211E311D1
:101F70003411341134113411341134113411341139
:101F80003411341134113411341134113411341129
:101F90003411341134113411341134113411341119
:101FA0003411341134113411341134113411341109
:101FB00034113411341134113411341134113411F9
:101FC0003411EC11AF12CA12D812E412F212FE123E
:101FD00020139B13A913B513DC13EA13F61301970F
:101FE00009F026CF8EE00E948A032091F6043091FA
:101FF000F7044091F8045091F9046091FA0470914B
:10200000FB04421B530B61097109480F591F611DE5
:10201000711D4093F8045093F9046093FA0470938F
:10202000FB04DB01CA010090100104C0B695A7951E
:10203000979587950A94D2F78D839E83AF83B8874F
:102040009093F7048093F6048FE00E948A03209116
:10205000F0043091F1044091F2045091F304609146
:10206000F4047091F504421B530B61097109480F88
:10207000591F611D711D4093F2045093F304609346
:10208000F4047093F504DB01CA0100900E0104C052
:10209000B695A795979587950A94D2F789839A83E1
:1020A000AB83BC839093F1048093F00480E10E94A1
:1020B0008A032091EA043091EB044090EC045090A4
:1020C000ED046090EE047090EF04421A530A610828
:1020D0007108480E591E611C711C4092EC0450920C
:1020E000ED046092EE047092EF0400900C0104C0C5
:1020F00076946794579447940A94D2F75092EB04DD
:102100004092EA0481E10E948A032091E404309124
:10211000E5048090E6049090E704A090E804B09075
:10212000E904821A930AA108B108880E991EA11C1D
:10213000B11C8092E6049092E704A092E804B09269
:10214000E90400900A0104C0B694A7949794879478
:102150000A94D2F79092E5048092E40482E10E940E
:102160008A032091DE043091DF04C090E004D09017
:10217000E104E090E204F090E304C21AD30AE1081B
:10218000F108C80ED91EE11CF11CC092E004D092E7
:10219000E104E092E204F092E3040090080104C03C
:1021A000F694E794D794C7940A94D2F7D092DF04B8
:1021B000C092DE0483E10E948A032091D80430910A
:1021C000D9044091DA045091DB046091DC047091F1
:1021D000DD04421B530B61097109480F591F611D32
:1021E000711D4093DA045093DB046093DC04709318
:1021F000DD040090060104C07695679557954795D4
:102200000A94D2F75093D9044093D804AD81BE818B
:10221000B0931F05A0931E0589819A8190931D0597
:1022200080931C0550921B0540921A059092190547
:1022300080921805D0921705C09216055093150587
:1022400040931405D3CD60E474E08CE196E00E94E5
:10225000840581E090E0909309058093080561E092
:1022600090E080E00E94980580912C0590912D05CA
:10227000029709F038C38BE795E00E940802E0ED71
:10228000E80FEF3308F02FC30E2E000CFF0BE55BB9
:10229000FE4E0C944B226214CE14DC14EA14F81493
:1022A0000815161527157314731473147314731407
:1022B00073147314731473147314731473147314E6
:1022C00073147314731473147314731473147314D6
:1022D00073147314731473147314731473147314C6
:1022E00073147314731473147314731473147314B6
:1022F00073147314731473143015F3154E165C169F
:10230000681676168216A4161F172D173917601730
:102310006E177A176AE474E08CE196E00E948405F7
:1023200082E090E0909309058093080562E098CFE1
:1023300064E574E08CE196E00E94840583E090E01F
:10234000909309058093080563E08ACF6EE574E0F9
:102350008CE196E00E94840584E090E0909309056A
:102360008093080564E07CCF81E090E090931301B6
:102370008093120161E00E9498056FE373E08CE1A5
:1023800096E00E94840570CF82E090E09093130164
:102390008093120162E081E090E00E94980560E580
:1023A00073E0EDCF81E090E090932D0580932C05B4
:1023B00069E674E08CE196E00E94840560912C054A
:1023C00082E090E04FCF82E090E090932D058093E3
:1023D0002C056DEE71E0EECF60916605809167058A
:1023E00060930605809307058091600590916105D3
:1023F000909305058093040580915A0590915B05A3
:1024000090930305809302058091540590915505A2
:10241000909301058093000580914E0590914F05A2
:102420009093FF048093FE0480912A0590912B05E0
:102430009093FD048093FC0483E090E00E94980553
:102440006091040584E090E00E9498056091020587
:1024500085E090E00E9498056091000586E090E09C
:102460000E9498056091FE0487E090E00E94980524
:102470006091FC0488E090E00E94980583E090E081
:102480000E949A05E82EF12CF0920705E0920605CD
:1024900084E090E00E949A0590E090930505809377
:1024A000040585E090E00E949A0590E09093030572
:1024B0008093020586E090E00E949A0590E0909358
:1024C00001058093000587E090E00E949A0590E066
:1024D0009093FF048093FE0488E090E00E949A05A8
:1024E00090E09093FD048093FC044AE050E0B70133
:1024F0008CE196E00E942C05609104057091050521
:102500004AE050E08CE196E00E942C0560910205C3
:10251000709103054AE050E08CE196E00E942C05A2
:1025200060910005709101054AE050E08CE196E071
:102530000E942C056091FE047091FF044AE050E077
:102540008CE196E00E942C056091FC047091FD04E2
:102550004AE050E08CE196E00E942C0585CE60E0D8
:1025600083E090E00E94980560E084E090E00E94A3
:10257000980560E085E090E00E94980560E086E0C4
:1025800090E00E94980560E087E090E00E94980546
:1025900060E070CF81E090E0909345058093440522
:1025A00061E089E090E00E94980563E673E0E7CE81
:1025B000109245051092440560E089E090E00E9489
:1025C00098056DE773E0DBCE81E090E090933705EE
:1025D0008093360561E08AE090E00E94980568E902
:1025E00073E0CDCE109237051092360560E08AE098
:1025F00090E00E94980568EB73E0C1CE609166059B
:102600008091670560936F05809370058BE090E083
:102610000E9498058BE090E00E949A05282F30E0F8
:102620003093700520936F05482F50E070E060E014
:102630002AE08CE196E00E94E0046CE274E09FCE18
:10264000609166058CE090E00E9498058CE090E037
:102650000E949A05682F70E0709311016093100139
:102660008CE196E00E946E05609160058DE090E03F
:102670000E9498058DE090E00E949A05682F70E016
:1026800070930F0160930E018CE196E00E946E053D
:1026900060915A058EE090E00E9498058EE090E0EF
:1026A0000E949A05682F70E070930D0160930C01F1
:1026B0008CE196E00E946E05609154058FE090E0F9
:1026C0000E9498058FE090E00E949A05682F70E0C4
:1026D00070930B0160930A018CE196E00E946E05F5
:1026E00060914E0580E190E00E94980580E190E0C5
:1026F0000E949A05682F70E07093090160930801A9
:102700008CE196E00E946E0560912A0581E190E0DF
:102710000E94980581E190E00E949A05682F70E080
:1027200070930701609306018CE196E00E946E05AC
:102730006DE674E024CE81E090E09093760580937E
:10274000750561E082E190E00E94980569ED73E013
:1027500016CE109276051092750560E082E190E049
:102760000E94980566EE73E00ACE8091660590910E
:10277000670564E670E00E9423226093420570932F
:10278000430583E190E00E94980583E190E00E9478
:102790009A05282F30E0309343052093420594E6B4
:1027A000899FB00111244AE050E08CE196E00E943C
:1027B0002C0567E274E0E3CD81E090E09093390569
:1027C0008093380561E084E190E00E94980564EF11
:1027D00073E0D5CD109239051092380560E084E1A0
:1027E00090E00E9498056BE074E0C9CD60E090E055
:1027F00080E00E94980560E081E090E00E949805EA
:1028000060E082E090E00E94980560E083E090E064
:102810000E94980560E084E090E00E94980560E0E6
:1028200085E090E00E94980560E086E090E00E94DC
:10283000980560E087E090E00E94980560E088E0FD
:1028400090E00E94980560E089E090E00E94980581
:1028500060E08AE090E00E94980560E08BE090E004
:102860000E94980560E08CE090E00E94980560E08E
:102870008DE090E00E94980560E08EE090E00E947C
:10288000980560E08FE090E00E94980560E080E1AC
:1028900090E00E94980560E081E190E00E94980538
:1028A00060E082E190E00E94980560E083E190E0C2
:1028B0000E94980560E084E190E00E9498056DE731
:1028C00074E05DCD60E474E08BE795E00E948405E0
:1028D00081E090E0909309058093080561E090E025
:1028E00080E00E9498050E949F03C0903B06D09014
:1028F0003C06E0903D06F0903E066C197D098E097D
:102900009F09693E73408105910508F0EAC38091F3
:102910001201909113010297E9F480916A05909158
:102920006B058F5D934F2091680530916905821783
:10293000930781F40E94B41F2DE538E040E050E099
:102940000E9422206953784F8F4F9F4F70936B05E1
:1029500060936A058091680590916905892B09F457
:10296000C0C380912C0590912D05019709F049C3B2
:102970001982E981E150EB3008F060C3F0E0ED53DB
:10298000FB4E0C944B2229182E18331838183D187A
:10299000E617421847184C18511856186AE474E0A4
:1029A0008BE795E00E94840582E090E09093090512
:1029B0008093080562E093CF64E574E08BE795E0CF
:1029C0000E94840583E090E09093090580930805B8
:1029D00063E085CF6EE574E08BE795E00E948405A7
:1029E00084E090E0909309058093080564E077CF38
:1029F00081E090E0909313018093120161E00E94C6
:102A000098056FE373E08BE795E00E9484056BCF38
:102A100082E090E0909313018093120162E081E0E4
:102A200090E00E94980560E573E0EDCF81E090E0D2
:102A300090932D0580932C0569E674E08BE795E073
:102A40000E94840560912C0582E090E04ACF82E0EC
:102A500090E090932D0580932C056DEE71E0EECF04
:102A60006091660580916705609306058093070570
:102A70008091600590916105909305058093040510
:102A800080915A0590915B05909303058093020510
:102A90008091540590915505909301058093000510
:102AA00080914E0590914F059093FF048093FE0412
:102AB00080912A0590912B059093FD048093FC044E
:102AC00083E090E00E9498056091040584E090E026
:102AD0000E9498056091020585E090E00E949805AB
:102AE0006091000586E090E00E9498056091FE04E8
:102AF00087E090E00E9498056091FC0488E090E0F7
:102B00000E94980583E090E00E949A05E82EF12C3F
:102B1000F0920705E092060584E090E00E949A0595
:102B200090E0909305058093040585E090E00E9475
:102B30009A0590E0909303058093020586E090E06B
:102B40000E949A0590E0909301058093000587E02C
:102B500090E00E949A0590E09093FF048093FE0419
:102B600088E090E00E949A0590E09093FD048093A5
:102B7000FC044AE050E0B7018BE795E00E942C0589
:102B800060910405709105054AE050E08BE795E0FF
:102B90000E942C0560910205709103054AE050E007
:102BA0008BE795E00E942C0560910005709101056E
:102BB0004AE050E08BE795E00E942C056091FE040E
:102BC0007091FF044AE050E08BE795E00E942C05ED
:102BD0006091FC047091FD044AE050E08BE795E0C1
:102BE0000E942C0580CE60E083E090E00E94980572
:102BF00060E084E090E00E94980560E085E090E06D
:102C00000E94980560E086E090E00E94980560E0F0
:102C100087E090E00E94980560E088E090E00E94E4
:102C2000980583E090E00E949A05E82EF12CF0923E
:102C30000705E092060584E090E00E949A0590E086
:102C4000909305058093040585E090E00E949A0525
:102C500090E0909303058093020586E090E00E9447
:102C60009A0590E0909301058093000587E090E03D
:102C70000E949A0590E09093FF048093FE0488E000
:102C800090E00E949A0590E09093FD048093FC04EC
:102C90004AE050E0B7018CE196E070CF81E090E02F
:102CA000909345058093440561E089E090E00E949F
:102CB000980563E673E0A7CE10924505109244058F
:102CC00060E089E090E00E9498056DE773E09BCE9C
:102CD00081E090E0909337058093360561E08AE0CB
:102CE00090E00E94980568E973E08DCE1092370558
:102CF0001092360560E08AE090E00E94980568EB4B
:102D000073E081CE609166058091670560936F05E1
:102D1000809370058BE090E00E9498058BE090E036
:102D20000E949A05282F30E03093700520936F059C
:102D3000482F50E070E060E02AE08BE795E00E94C9
:102D4000E0046CE274E05FCE609166058CE090E098
:102D50000E9498058CE090E00E949A05682F70E030
:102D600070931101609310018BE795E00E946E054E
:102D7000609160058DE090E00E9498058DE090E004
:102D80000E949A05682F70E070930F0160930E0106
:102D90008BE795E00E946E0560915A058EE090E009
:102DA0000E9498058EE090E00E949A05682F70E0DE
:102DB00070930D0160930C018BE795E00E946E0506
:102DC000609154058FE090E00E9498058FE090E0BC
:102DD0000E949A05682F70E070930B0160930A01BE
:102DE0008BE795E00E946E0560914E0580E190E0D2
:102DF0000E94980580E190E00E949A05682F70E09B
:102E000070930901609308018BE795E00E946E05BD
:102E100060912A0581E190E00E94980581E190E0AF
:102E20000E949A05682F70E0709307016093060175
:102E30008BE795E00E946E056DE674E0E4CD81E0DD
:102E400090E0909376058093750561E082E190E0D3
:102E50000E94980569ED73E0D6CD10927605109228
:102E6000750560E082E190E00E94980566EE73E0EF
:102E7000CACD809166059091670564E670E00E9476
:102E80002322609342057093430583E190E00E9402
:102E9000980583E190E00E949A05282F30E0309356
:102EA000430520934205A4E68A9FB00111244AE01D
:102EB00050E08BE795E00E942C0567E274E0A3CD1B
:102EC00081E090E0909339058093380561E084E1DA
:102ED00090E00E94980564EF73E095CD109239055B
:102EE0001092380560E084E190E00E9498056BE064
:102EF00074E089CD60E090E080E00E94980560E099
:102F000081E090E00E94980560E082E090E00E94FD
:102F1000980560E083E090E00E94980560E084E01E
:102F200090E00E94980560E085E090E00E9498059E
:102F300060E086E090E00E94980560E087E090E025
:102F40000E94980560E088E090E00E94980560E0AB
:102F500089E090E00E94980560E08AE090E00E949D
:102F6000980560E08BE090E00E94980560E08CE0BE
:102F700090E00E94980560E08DE090E00E94980546
:102F800060E08EE090E00E94980560E08FE090E0C5
:102F90000E94980560E080E190E00E94980560E062
:102FA00081E190E00E94980560E082E190E00E945B
:102FB000980560E083E190E00E94980560E084E17C
:102FC00090E00E9498056DE774E01DCD8091680542
:102FD0009091690560916A0570916B05892B91F557
:102FE00069E874E08BE795E00E94960529812F5FE0
:102FF00029832C3009F0BDCC6DE08BE795E00E9471
:103000006C0280912C0590912D05029709F069C002
:103010001982E981E150EB3008F0B8C4F0E0ED5ED0
:10302000F74E0C944B22CD1CD21CD71CDC1CE11C8F
:103030005B18E61CEB1CF01CF51C001D60911E05C6
:1030400070911F054AE050E08BE795E00E942C0547
:10305000C7CF60911C0570911D05F4CF60911A05D2
:1030600070911B05EFCF6091180570911905EACF9B
:103070006091160570911705E5CF60911405709168
:103080001505E0CF6091120570911305DBCF6091BB
:10309000100570911105D6CF60910E0570910F0546
:1030A000D1CF60910C0570910D05CCCF60910A05D0
:1030B00070910B05C7CF809168059091690560916B
:1030C0006A0570916B05892B09F064C449814F5FD3
:1030D00049834C3009F09DCF6DE08CE196E00E9471
:1030E000DD0380912C0590912D058130910509F02B
:1030F0008CC48BE795E00E942A02889709F032C2BF
:103100008BE795E00E9408025C018BE795E00E9446
:1031100008026C018BE795E00E9408027C018BE7B6
:1031200095E00E940802A0E3AA1AB108A09E9001AF
:10313000A19E300DB09E300D1124C097820F931FB9
:10314000B0E3CB1AD10844E64C9D90014D9D300D63
:103150001124820F931FA0E3EA1AF108BAE0BE9D82
:103160009001BF9D300D1124820F931F9093410554
:10317000809340058BE795E00E9408025C018BE795
:1031800095E00E9408026C018BE795E00E9408021E
:103190007C018BE795E00E94080220E3A21AB108A7
:1031A000A09E9001A19E300DB09E300D1124C097BD
:1031B000820F931F40E3C41AD108A4E6AC9D90018E
:1031C000AD9D300D1124820F931FB0E3EB1AF1086F
:1031D0004AE04E9D90014F9D300D1124820F931FA8
:1031E00090933505809334058BE795E00E940802A3
:1031F0005C018BE795E00E9408026C018BE795E08B
:103200000E9408027C018BE795E00E940802A0E37F
:10321000AA1AB108A09E9001A19E300DB09E300D5B
:103220001124C097820F931FB0E3CB1AD10844E654
:103230004C9D90014D9D300D1124820F931FA0E3F2
:10324000EA1AF108BAE0BE9D9001BF9D300D11242D
:10325000820F931F90936905809368058BE795E033
:103260000E9408025C018BE795E00E9408026C0155
:103270008BE795E00E9408027C018BE795E00E94B5
:10328000080220E3A21AB108A09E9001A19E300D71
:10329000B09E300D1124C097820F931F40E3C41AD3
:1032A000D108A4E6AC9D9001AD9D300D1124820F94
:1032B000931FB0E3EB1AF1084AE04E9D90014F9D39
:1032C000300D1124820F931F90936705809366053C
:1032D0008BE795E00E9408025C018BE795E00E9475
:1032E00008026C018BE795E00E9408027C018BE7E5
:1032F00095E00E940802A0E3AA1AB108A09E9001DE
:10330000A19E300DB09E300D1124C097820F931FE7
:10331000B0E3CB1AD10844E64C9D90014D9D300D91
:103320001124820F931FA0E3EA1AF108BAE0BE9DB0
:103330009001BF9D300D1124820F931F9093610562
:10334000809360058BE795E00E9408025C018BE7A3
:1033500095E00E9408026C018BE795E00E9408024C
:103360007C018BE795E00E94080220E3A21AB108D5
:10337000A09E9001A19E300DB09E300D1124C097EB
:10338000820F931F40E3C41AD108A4E6AC9D9001BC
:10339000AD9D300D1124820F931FB0E3EB1AF1089D
:1033A0004AE04E9D90014F9D300D1124820F931FD6
:1033B00090935B0580935A058BE795E00E94080285
:1033C0005C018BE795E00E9408026C018BE795E0B9
:1033D0000E9408027C018BE795E00E940802A0E3AE
:1033E000AA1AB108A09E9001A19E300DB09E300D8A
:1033F0001124C097820F931FB0E3CB1AD10844E683
:103400004C9D90014D9D300D1124820F931FA0E320
:10341000EA1AF108BAE0BE9D9001BF9D300D11245B
:10342000820F931F90935505809354058BE795E089
:103430000E9408025C018BE795E00E9408026C0183
:103440008BE795E00E9408027C018BE795E00E94E3
:10345000080220E3A21AB108A09E9001A19E300D9F
:10346000B09E300D1124C097820F931F40E3C41A01
:10347000D108A4E6AC9D9001AD9D300D1124820FC2
:10348000931FB0E3EB1AF1084AE04E9D90014F9D67
:10349000300D1124820F931F90934F0580934E059A
:1034A0008BE795E00E9408025C018BE795E00E94A3
:1034B00008026C018BE795E00E9408027C018BE713
:1034C00095E00E940802A0E3AA1AB108A09E90010C
:1034D000A19E300DB09E300D1124C097820F931F16
:1034E000B0E3CB1AD10844E64C9D90014D9D300DC0
:1034F0001124820F931FA0E3EA1AF108BAE0BE9DDF
:103500009001BF9D300D1124820F931F90932B05C6
:1035100080932A058BE795E00E940802C09790935C
:103520002905809328058BE795E00E940802C09743
:1035300090932705809326058BE795E00E9408026B
:10354000C09790932505809324058BE795E00E9412
:103550000802C09790932305809322058BE795E09E
:103560000E94080280916A0590916B058F5D934FD0
:1035700020916805309169058217930709F048C0CA
:10358000809028059090290581E08816910421F407
:1035900060E086E00E942B03A0902605B0902705EE
:1035A00091E0A916B10421F460E087E00E942B03AA
:1035B000C0902405D0902505A1E0CA16D10421F4BD
:1035C00061E088E00E942B03E0902205F090230543
:1035D000B1E0EB16F10421F461E08BE00E942B03D3
:1035E000892821F461E086E00E942B03AB2821F4B6
:1035F00061E087E00E942B03CD2821F460E088E0A1
:103600000E942B03EF2821F460E08BE00E942B0343
:103610008091380590913905009709F033C481E015
:1036200090E090932105809320058091660590910C
:103630006705B8010E94232290E080E00E942821C3
:103640002B013C0140926205509263056092640533
:10365000709265058091600590916105B8010E94A6
:10366000232290E080E00E94282169837A838B8363
:103670009C8360935C0570935D0580935E059093D9
:103680005F0580915A0590915B05B8010E94232245
:1036900090E080E00E94282169877A878B879C8749
:1036A000609356057093570580935805909359057C
:1036B0008091540590915505B8010E94232290E015
:1036C00080E00E9428216D877E878F87988B60938A
:1036D0005005709351058093520590935305809146
:1036E0004E0590914F05B8010E94232290E080E0A2
:1036F0000E9428216D837E838F83988760934A057B
:1037000070934B0580934C0590934D05DC01CB01E4
:103710008093460590934705A0934805B0934905CB
:10372000209044053090450591E02916310409F0B8
:103730008BC0809142059091430524E6289FD001DB
:10374000299FB00D112420914005309141050E9420
:1037500051222FEF33E040E050E00E942220809180
:103760006C0590916D05281B390BB901330F880B3F
:10377000990B0E942A216B017C0120913C0530911C
:103780003D0540913E0550913F050E9486204B012A
:103790005C0180923C0590923D05A0923E05B0925E
:1037A0003F05A7019601C301B2010E94B6212B017A
:1037B0003C01A501940169817A818B819C810E94E1
:1037C000B6219B01AC01C301B2010E9486204B01CE
:1037D0005C01A701960160E070E0CB010E948520AA
:1037E00029853A854B855C850E94B6219B01AC01F9
:1037F000C501B4010E9486206B017C0160913A05ED
:1038000070913B05072E000C880B990B0E942A2112
:103810009B01AC01C701B6010E9486200E94F220E4
:10382000611544E0740714F06FEF73E077FF02C096
:1038300070E060E070933B0560933A0581E090E0B2
:10384000909339058093380580913605909137051E
:103850009A838983019709F01BC3E0903405F090A7
:10386000350583E10E948A03E81AF90AB70190E05E
:1038700080E00E9428216B017C012091300530916D
:10388000310540913205509133050E9486204B014D
:103890005C018092300590923105A0923205B09281
:1038A0003305A70196016D857E858F8598890E94D5
:1038B000B6212B013C01A50194016D817E818F8190
:1038C00098850E94B6219B01AC01C301B2010E9400
:1038D00086204B015C01A701960160E070E0CB01FE
:1038E0000E9485202D813E814F8158850E94B621FE
:1038F0009B01AC01C501B4010E9486206B017C01D3
:1039000060912E0570912F05072E000C880B990BE6
:103910000E942A219B01AC01C701B6010E948620AA
:103920000E94F220611594E0790714F06FEF73E0C4
:1039300077FF02C070E060E070932F0560932E0562
:103940002328A1F4809140059091410590933B0577
:1039500080933A05A981BA81AB2B41F4809134055B
:103960009091350590932F0580932E0580E090E08F
:10397000892B11F40C94A40E0E943602882311F4B2
:103980000C94A40E0E9400000C94A20E60911E05DF
:1039900070911F054AE050E02EC060911C057091A7
:1039A0001D05F8CF60911A0570911B05F3CF60914A
:1039B000180570911905EECF6091160570911705E5
:1039C000E9CF6091140570911505E4CF609112055F
:1039D00070911305DFCF6091100570911105DACF5A
:1039E00060910E0570910F05D5CF60910C05709117
:1039F0000D0542E050E08CE196E00E942C0566CB7C
:103A000060910A0570910B05C5CF029709F0AACD08
:103A10008CE196E00E943904889709F0A3CD8CE1EF
:103A200096E00E9451045C018CE196E00E945104F2
:103A30006C018CE196E00E9451047C018CE196E0DF
:103A40000E94510420E3A21AB108A09E9001A19EF9
:103A5000300DB09E300D1124C097820F931F40E3AC
:103A6000C41AD108A4E6AC9D9001AD9D300D11247F
:103A7000820F931FB0E3EB1AF1084AE04E9D9001CC
:103A80004F9D300D1124820F931F90934105809319
:103A900040058CE196E00E9451045C018CE196E0C7
:103AA0000E9451046C018CE196E00E9451047C015B
:103AB0008CE196E00E945104A0E3AA1AB108A09EEE
:103AC0009001A19E300DB09E300D1124C097820F41
:103AD000931FB0E3CB1AD10844E64C9D90014D9D55
:103AE000300D1124820F931FA0E3EA1AF108BAE007
:103AF000BE9D9001BF9D300D1124820F931F9093A6
:103B00003505809334058CE196E00E9451045C01F8
:103B10008CE196E00E9451046C018CE196E00E94D9
:103B200051047C018CE196E00E94510420E3A21A2A
:103B3000B108A09E9001A19E300DB09E300D1124C1
:103B4000C097820F931F40E3C41AD108A4E6AC9D2E
:103B50009001AD9D300D1124820F931FB0E3EB1A3D
:103B6000F1084AE04E9D90014F9D300D1124820FC7
:103B7000931F90936905809368058CE196E00E94FD
:103B800051045C018CE196E00E9451046C018CE1CF
:103B900096E00E9451047C018CE196E00E94510461
:103BA000A0E3AA1AB108A09E9001A19E300DB09E7C
:103BB000300D1124C097820F931FB0E3CB1AD108A8
:103BC00044E64C9D90014D9D300D1124820F931FB2
:103BD000A0E3EA1AF108BAE0BE9D9001BF9D300D46
:103BE0001124820F931F90936705809366058CE1E3
:103BF00096E00E9451045C018CE196E00E94510421
:103C00006C018CE196E00E9451047C018CE196E00D
:103C10000E94510420E3A21AB108A09E9001A19E27
:103C2000300DB09E300D1124C097820F931F40E3DA
:103C3000C41AD108A4E6AC9D9001AD9D300D1124AD
:103C4000820F931FB0E3EB1AF1084AE04E9D9001FA
:103C50004F9D300D1124820F931F90936105809327
:103C600060058CE196E00E9451045C018CE196E0D5
:103C70000E9451046C018CE196E00E9451047C0189
:103C80008CE196E00E945104A0E3AA1AB108A09E1C
:103C90009001A19E300DB09E300D1124C097820F6F
:103CA000931FB0E3CB1AD10844E64C9D90014D9D83
:103CB000300D1124820F931FA0E3EA1AF108BAE035
:103CC000BE9D9001BF9D300D1124820F931F9093D4
:103CD0005B0580935A058CE196E00E9451045C01DB
:103CE0008CE196E00E9451046C018CE196E00E9408
:103CF00051047C018CE196E00E94510420E3A21A59
:103D0000B108A09E9001A19E300DB09E300D1124EF
:103D1000C097820F931F40E3C41AD108A4E6AC9D5C
:103D20009001AD9D300D1124820F931FB0E3EB1A6B
:103D3000F1084AE04E9D90014F9D300D1124820FF5
:103D4000931F90935505809354058CE196E00E9453
:103D500051045C018CE196E00E9451046C018CE1FD
:103D600096E00E9451047C018CE196E00E9451048F
:103D7000A0E3AA1AB108A09E9001A19E300DB09EAA
:103D8000300D1124C097820F931FB0E3CB1AD108D6
:103D900044E64C9D90014D9D300D1124820F931FE0
:103DA000A0E3EA1AF108BAE0BE9D9001BF9D300D74
:103DB0001124820F931F90934F0580934E058CE141
:103DC00096E00E9451045C018CE196E00E9451044F
:103DD0006C018CE196E00E9451047C018CE196E03C
:103DE0000E94510420E3A21AB108A09E9001A19E56
:103DF000300DB09E300D1124C097820F931F40E309
:103E0000C41AD108A4E6AC9D9001AD9D300D1124DB
:103E1000820F931FB0E3EB1AF1084AE04E9D900128
:103E20004F9D300D1124820F931F90932B0580938B
:103E30002A058CE196E00E945104C09790932905D1
:103E4000809328058CE196E00E945104C0979093DE
:103E50002705809326058CE196E00E945104C097C7
:103E600090932505809324058CE196E00E945104EF
:103E7000C09790932305809322058CE196E00E94E1
:103E8000510470CB019709F0D0CB83E090E0C9CB0F
:103E9000232809F457CD5ECD8EE291E090931D0664
:103EA00080931C068091790590917A058C519640FB
:103EB00071F4E0912F06F0913006908180913106E7
:103EC00080958923808310927A0510927905089550
:103ED0008F929F92AF92BF92CF92DF92EF92FF921A
:103EE000CF93DF93EC01688179818A819B81611591
:103EF00071058105910521F464E279ED8BE597E088
:103F00002DE133EF41E050E00E94222049015A01A7
:103F10009B01AC01A7EAB1E40E9441206B017C0146
:103F2000ACEEB4EFA50194010E944F20C60ED71E3F
:103F3000E81EF91EF7FE06C081E0C81AD108E108A4
:103F400080E8F80AC882D982EA82FB82C701B601FA
:103F50009F77DF91CF91FF90EF90DF90CF90BF9050
:103F6000AF909F908F9008958F929F92AF92BF9243
:103F7000CF92DF92EF92FF92609114017091150140
:103F800080911601909117016115710581059105C8
:103F900021F464E279ED8BE597E02DE133EF41E028
:103FA00050E00E94222049015A019B01AC01A7EA7E
:103FB000B1E40E9441206B017C01ACEEB4EFA5019D
:103FC00094010E944F20C60ED71EE81EF91EF7FE70
:103FD00006C081E0C81AD108E10880E8F80AC0925A
:103FE0001401D0921501E0921601F0921701C70159
:103FF000B6019F77FF90EF90DF90CF90BF90AF908A
:104000009F908F9008956093140170931501809391
:104010001601909317010895F999FECF92BD81BDC5
:10402000F89A992780B50895262FF999FECF1FBADF
:1040300092BD81BD20BD0FB6F894FA9AF99A0FBED1
:1040400001960895052E97FB1EF400940E943920D6
:1040500057FD07D00E94542007FC03D04EF40C9467
:10406000392050954095309521953F4F4F4F5F4FE8
:10407000089590958095709561957F4F8F4F9F4FD4
:1040800008950E947620A59F900DB49F900DA49F47
:10409000800D911D11240895B7FF0C9441200E94BA
:1040A0004120821B930B0895A1E21A2EAA1BBB1B71
:1040B000FD010DC0AA1FBB1FEE1FFF1FA217B307F4
:1040C000E407F50720F0A21BB30BE40BF50B661F0A
:1040D000771F881F991F1A9469F7609570958095CE
:1040E00090959B01AC01BD01CF010895A29FB00145
:1040F000B39FC001A39F700D811D1124911DB29F1C
:10410000700D811D1124911D08955058BB27AA27B9
:104110000E949D200C947C210E946E2138F00E9408
:10412000752120F039F49F3F19F426F40C946B218B
:104130000EF4E095E7FB0C946521E92F0E948D2198
:1041400058F3BA17620773078407950720F079F4CC
:10415000A6F50C94AF210EF4E0950B2EBA2FA02DEE
:104160000B01B90190010C01CA01A0011124FF2724
:10417000591B99F0593F50F4503E68F11A16F0401F
:10418000A22F232F342F4427585FF3CF469537951E
:104190002795A795F0405395C9F77EF41F16BA0BE3
:1041A000620B730B840BBAF09150A1F0FF0FBB1F91
:1041B000661F771F881FC2F70EC0BA0F621F731FDA
:1041C000841F48F4879577956795B795F7959E3F37
:1041D00008F0B0CF9395880F08F09927EE0F9795C8
:1041E000879508950E94F9206894B1110C94B0212C
:1041F00008950E94952188F09F5798F0B92F99272C
:10420000B751B0F0E1F0660F771F881F991F1AF0C1
:10421000BA95C9F714C0B13091F00E94AF21B1E056
:1042200008950C94AF21672F782F8827B85F39F055
:10423000B93FCCF3869577956795B395D9F73EF45A
:1042400090958095709561957F4F8F4F9F4F089502
:10425000E89409C097FB3EF4909580957095619520
:104260007F4F8F4F9F4F9923A9F0F92F96E9BB27D6
:104270009395F695879577956795B795F111F8CF52
:10428000FAF4BB0F11F460FF1BC06F5F7F4F8F4FBD
:104290009F4F16C0882311F096E911C0772321F0B3
:1042A0009EE8872F762F05C0662371F096E8862F4B
:1042B00070E060E02AF09A95660F771F881FDAF7A2
:1042C000880F9695879597F9089597F99F6780E8E5
:1042D00070E060E008959FEF80EC089500240A9458
:1042E0001616170618060906089500240A941216D1
:1042F0001306140605060895092E0394000C11F404
:10430000882352F0BB0F40F4BF2B11F460FF04C0B0
:104310006F5F7F4F8F4F9F4F089557FD9058440F09
:10432000551F59F05F3F71F04795880F97FB991F14
:1043300061F09F3F79F087950895121613061406D1
:10434000551FF2CF4695F1DF08C01616170618065E
:10435000991FF1CF86957105610508940895E89439
:10436000BB2766277727CB0197F908950E94C921BB
:104370000C947C210E946E2138F00E94752120F05F
:10438000952311F00C9465210C946B2111240C944D
:10439000B0210E948D2170F3959FC1F3950F50E0DD
:1043A000551F629FF001729FBB27F00DB11D639FE7
:1043B000AA27F00DB11DAA1F649F6627B00DA11D8D
:1043C000661F829F2227B00DA11D621F739FB00D33
:1043D000A11D621F839FA00D611D221F749F3327A3
:1043E000A00D611D231F849F600D211D822F762F3C
:1043F0006A2F11249F5750409AF0F1F088234AF019
:10440000EE0FFF1FBB1F661F771F881F9150504084
:10441000A9F79E3F510580F00C9465210C94B021C2
:104420005F3FE4F3983ED4F3869577956795B7950B
:10443000F795E7959F5FC1F7FE2B880F911D969525
:10444000879597F90895AA1BBB1B51E107C0AA1FC6
:10445000BB1FA617B70710F0A61BB70B881F991F25
:104460005A95A9F780959095BC01CD01089597FBC9
:10447000072E16F4009407D077FD09D00E9423225E
:1044800007FC05D03EF4909581959F4F0895709557
:1044900061957F4F0895EE0FFF1F0590F491E02D79
:1044A00009940E947620B7FF0895821B930B08950C
:1044B00010E0C2E6D0E004C0FE010E944B2221962B
:1044C000C336D107C9F7F894FFCF7504CB01CB01F0
:1044D00001000100010001000100010001000100D4
:1044E0000000000000006C02CC01F901B9022A02B0
:1044F00008021C0200000000DD03CC017204DC0392
:1045000039045104C4030D0A00534420506C6F74E5
:104510007465720056657273696F6E20312E30308B
:104520000053455249414C204E554D424552203D85
:104530002000536574206261756420726174652E79
:1045400020302D3E31393230302F312D3E3338344A
:1045500030302F322D3E35373630302F332D3E312F
:104560003135323030005365742068616E64736891
:10457000616B65206D6F64652E20342D3E53746130
:104580007469632F352D3E5661726961626C6500F6
:10459000536574206D61696E20706F727420636F53
:1045A0006D6D756E69636174696F6E2E20362D3E78
:1045B0005553422F372D3E53657269616C00536528
:1045C000742073657269616C206E756D6265722E00
:1045D00020612D3E456E7465722F622D3E436C65E1
:1045E00061720046756E6374696F6E2073706565E5
:1045F0006420636F6E74726F6C205049442E206388
:104600002D3E4F4E2F642D3E4F46460046756E633D
:1046100074696F6E2074656D706572617475726512
:1046200020636F6E74726F6C205049442E20652D8C
:104630003E4F4E2F662D3E4F464600536574206513
:104640006E636F64657220636F756E74206E756D36
:10465000626572732E20672D3E456E74657200533D
:10466000657420736D6F6F7468696E672072617412
:10467000652E20682D3E456E74657200536574206A
:1046800066756E6374696F6E20736D6F6F746869A1
:104690006E672E20692D3E4F4E2F6A2D3E4F4646A7
:1046A00000536574204D61782052504D2E206B2DA3
:1046B0003E456E746572005365742066756E637452
:1046C000696F6E20746F727175652E206C2D3E4F70
:1046D0004E2F206D2D3E4F4646005365742070616D
:1046E00072616D6574657273203D20302E206E2DD1
:1046F0003E436C65617220616C6C002F2F205375F6
:104700006D6D617279202F2F00537461746963207D
:1047100068616E647368616B65005661726961629D
:104720006C652068616E647368616B6500537065C9
:1047300065642050494420636F6E74726F6C20650D
:104740006E61626C65640053706565642050494415
:1047500020636F6E74726F6C2064697361626C6544
:10476000640054656D70657261747572652050499E
:104770004420636F6E74726F6C20656E61626C654D
:10478000640054656D70657261747572652050497E
:104790004420636F6E74726F6C2064697361626C25
:1047A000656400536D6F6F7468696E67206F6E008B
:1047B000536D6F6F7468696E67206F666600546F23
:1047C000727175652072656164696E6720656E61DE
:1047D000626C656400546F72717565207265616406
:1047E000696E672064697361626C656400204D6165
:1047F000782052504D002070756C73652873290025
:104800002F2F202D2F2D202F2F0031393230302007
:104810006270730033383430302062707300353783
:1048200036303020627073003131353230302062E2
:1048300070730055534200204368616E67652077AE
:10484000656967687473004461746120657261739F
:0648500065640023000076
:107E0000112484B714BE81FFF0D085E080938100F7
:107E100082E08093C00088E18093C10086E0809377
:107E2000C20080E18093C4008EE0C9D0259A86E02C
:107E300020E33CEF91E0309385002093840096BBD3
:107E4000B09BFECF1D9AA8958150A9F7CC24DD24C4
:107E500088248394B5E0AB2EA1E19A2EF3E0BF2EE7
:107E6000A2D0813461F49FD0082FAFD0023811F036
:107E7000013811F484E001C083E08DD089C08234E0
:107E800011F484E103C0853419F485E0A6D080C0E4
:107E9000853579F488D0E82EFF2485D0082F10E0AE
:107EA000102F00270E291F29000F111F8ED06801E7
:107EB0006FC0863521F484E090D080E0DECF843638
:107EC00009F040C070D06FD0082F6DD080E0C81688
:107ED00080E7D80618F4F601B7BEE895C0E0D1E017
:107EE00062D089930C17E1F7F0E0CF16F0E7DF06D8
:107EF00018F0F601B7BEE89568D007B600FCFDCFD4
:107F0000A601A0E0B1E02C9130E011968C91119780
:107F100090E0982F8827822B932B1296FA010C0160
:107F200087BEE89511244E5F5F4FF1E0A038BF0790
:107F300051F7F601A7BEE89507B600FCFDCF97BE46
:107F4000E89526C08437B1F42ED02DD0F82E2BD052
:107F50003CD0F601EF2C8F010F5F1F4F84911BD097
:107F6000EA94F801C1F70894C11CD11CFA94CF0C13
:107F7000D11C0EC0853739F428D08EE10CD085E9AC
:107F80000AD08FE07ACF813511F488E018D01DD067
:107F900080E101D065CF982F8091C00085FFFCCF94
:107FA0009093C60008958091C00087FFFCCF809118
:107FB000C00084FD01C0A8958091C6000895E0E648
:107FC000F0E098E1908380830895EDDF803219F02E
:107FD00088E0F5DFFFCF84E1DECF1F93182FE3DFCA
:107FE0001150E9F7F2DF1F91089580E0E8DFEE27F6
:047FF000FF270994CA
:027FFE00040479
:00000001FF
