:020000040000FA
:100000000C9463000C946B0B0C94440B0C94920BAB
:100010000C94920B0C94920B0C948B000C948B0010
:100020000C948B000C948B000C948B000C948B0024
:100030000C948B000C940A0C0C948B000C948B0089
:100040000C94FA0A0C948B000C94C80A0C94A20A23
:100050000C948B000C948B000C948B000C948B00F4
:100060000C948B000C948B000000000024002700EF
:100070002A0000000008000201000003040700003D
:1000800000000000000000000000230026002900FE
:1000900000000000250028002B00040404040404D0
:1000A0000404020202020202030303030303010227
:1000B00004081020408001020408102001020408F6
:1000C0001020310C6F1D11241FBECFEFD8E0DEBF12
:1000D000CDBF14E0A0E0B1E0E2E7F5E402C0059096
:1000E0000D92AE3DB107D9F726E0AEEDB4E001C008
:1000F0001D92A53BB207E1F710E0C2E6D0E004C0D4
:100100002197FE010E94AD20C136D107C9F70E9498
:100110005F0D0C94AC220C940000CF92DF92EF9212
:10012000FF926B017C01E091E305F091E40582E030
:100130008083C11481EED806E104F104A1F060E0EF
:1001400079E08DE390E0A70196010E94B11F215054
:10015000310941095109569547953795279521153C
:1001600080E13807A8F0E091E305F091E405108202
:1001700060E874E88EE190E0A70196010E94B11F4B
:1001800021503109410951095695479537952795D1
:10019000E091DF05F091E0053083E091E105F09119
:1001A000E20520831092EB05E091E705F091E80568
:1001B00086E08083E091E505F091E605808180612D
:1001C0008083E091E505F091E60580818860808379
:1001D000E091E505F091E605808180688083E091FB
:1001E000E505F091E60580818F7D8083FF90EF909B
:1001F000DF90CF9008959B01AC0110928B06109276
:100200008A0610928906109288061092870610922C
:10021000860660E079E08DE390E00E94481FB90116
:10022000C90103972430310510F481E090E09093E8
:100230008D0680938C0690917C06963108F05FC005
:10024000F901F695E795E431F10508F488C0739754
:10025000F0938706E09386066630710508F482C045
:10026000B901655071097093890660938806B901D8
:10027000660F771F260F371F3695279536952795DA
:100280002D30310508F471C02C50310930938B06A4
:1002900020938A062091680084E0983048F031E08D
:1002A0009E3008F430E081E001C0880F3A95EAF70B
:1002B000822B809368002DE630E0983050F02BE6DA
:1002C00030E09E3030F02CE630E0963110F030E037
:1002D00020E03093840620938306292F30E0983065
:1002E00008F046C081E001C0880F9A95EAF7809334
:1002F000850680918C0690918D060197F1F780918B
:100300008A0690918B06892B49F1E091D105F091F5
:10031000D20586E0E037F80709F1309739F0A38974
:10032000B4899C918589809589238C9380918E06D0
:100330008E7F80938E061092D0051092CF0580E7B5
:1003400096E09093D2058093D105E0918306F091D9
:100350008406808190918506892B80830895E1E051
:10036000F0E076CF61E070E07ECF21E030E08ECF2C
:100370009E3040F42850310981E001C0880F2A9551
:10038000EAF7B5CF2E503109F7CF8091C8058F5FBE
:100390008093C80508950895AF92BF92CF92DF92DF
:1003A000EF92FF920F931F93CF93DF936C017B012A
:1003B0008B01040F151FEB015E01AE18BF08C017BB
:1003C000D10759F06991D601ED91FC910190F0812E
:1003D000E02DC6010995892B79F7C501DF91CF91F1
:1003E0001F910F91FF90EF90DF90CF90BF90AF9053
:1003F0000895FC01538D448D252F30E0842F90E02B
:10040000821B930B541710F0CF960895019708950F
:10041000FC01918D828D981761F0A28DAE0FBF2FD8
:10042000B11D5D968C91928D9F5F9F73928F90E02E
:1004300008958FEF9FEF0895FC01918D828D98179D
:1004400031F0828DE80FF11D858D90E008958FEFDA
:100450009FEF0895FC01918D228D892F90E0805CA3
:100460009F4F821B91098F739927089583ED95E023
:100470000E942A0221E0892B09F420E0822F0895AE
:1004800080E090E0892B29F00E94360281110C94C3
:1004900000000895FC01A48DA80FB92FB11DA35A27
:1004A000BF4F2C91848D90E001968F739927848F94
:1004B000A689B7892C93A089B1898C9183708064B7
:1004C0008C93938D848D981306C00288F389E02D58
:1004D00080818F7D80830895EF92FF920F931F9309
:1004E000CF93DF93EC0181E0888F9B8D8C8D9813E7
:1004F0001AC0E889F989808185FF15C09FB7F894F3
:10050000EE89FF896083E889F9898081837080643E
:1005100080839FBF81E090E0DF91CF911F910F9189
:10052000FF90EF900895F62E0B8D10E00F5F1F4F98
:100530000F731127E02E8C8D8E110CC00FB607FCA7
:10054000FACFE889F989808185FFF5CFCE010E9435
:100550004A02F1CFEB8DEC0FFD2FF11DE35AFF4F57
:10056000F0829FB7F8940B8FEA89FB8980818062C3
:10057000CFCFCF93DF93EC01888D8823B9F0AA8980
:10058000BB89E889F9898C9185FD03C0808186FD4E
:100590000DC00FB607FCF7CF8C9185FFF2CF80819D
:1005A00085FFEDCFCE010E944A02E9CFDF91CF91C6
:1005B0000895833081F028F4813099F08230A9F0D9
:1005C00008958730A9F08830C9F08430B1F4809163
:1005D00080008F7D03C0809180008F7780938000A2
:1005E000089584B58F7784BD089584B58F7DFBCF42
:1005F0008091B0008F778093B00008958091B00013
:100600008F7DF9CFCF93DF93282F30E0F901EE589B
:10061000FF4F8491F901E255FF4FD491F901E6565D
:10062000FF4FC491CC23A1F081110E94D902EC2F7D
:10063000F0E0EE0FFF1FEA57FF4FA591B491EC9148
:10064000ED2381E090E009F480E0DF91CF910895FF
:1006500080E090E0FACF1F93CF93DF93282F30E014
:10066000F901EE58FF4F8491F901E255FF4FD49103
:10067000F901E656FF4FC491CC23A9F0162F811142
:100680000E94D902EC2FF0E0EE0FFF1FE057FF4F62
:10069000A591B4918FB7F894EC91111108C0D09541
:1006A000DE23DC938FBFDF91CF911F910895DE2B66
:1006B000F8CFCF93DF9390E0FC01E255FF4F2491F8
:1006C00086569F4FFC0184918823D1F090E0880FDB
:1006D000991FFC01E859FF4FA591B491FC01E05727
:1006E000FF4FC591D49161110EC09FB7F8948C91C2
:1006F000E22FE0958E238C932881E223E8839FBF2D
:10070000DF91CF9108958FB7F894EC91E22BEC93A1
:100710008FBFF6CF8E3008F08E5087708064809344
:100720007C0080917A00806480937A0080917A00C6
:1007300086FDFCCF809178009091790008953FB7B5
:10074000F8948091320590913305A0913405B091D1
:10075000350526B5A89B05C02F3F19F00196A11DB0
:10076000B11D3FBFBA2FA92F982F8827BC01CD01FB
:10077000620F711D811D911D42E0660F771F881F5A
:10078000991F4A95D1F708952091D1053091D2054E
:100790002817390771F49091CF058091D0059817EB
:1007A00041F0E091CF05F0E0EF50FB4F808190E009
:1007B00008958FEF9FEF08950895EF92FF920F93A2
:1007C0001F93CF93DF93DC015C96ED90FC905D97D7
:1007D000E114F10479F481E090E013969C938E93F8
:1007E000129790E080E0DF91CF911F910F91FF90E1
:1007F000EF9008955196ED91FC91529750968C91FF
:100800005097982F90950FB75E962C915E97122F68
:10081000127021FD6095F8942081112319F1282B85
:100820002083E7012197F1F728E0462F50E030813F
:1008300060FF1AC0382B3083E7012197F1F7BA0126
:1008400075956795215089F7112381F0808189235F
:1008500080830FBF5C968D919C910197F1F781E0A9
:1008600090E0C1CF2923DCCF3923E5CF9081892BBC
:10087000EFCF2091D1053091D2052817390771F4B7
:100880008091D0052091CF0590E0805C9F4F821B26
:10089000910960E470E00E949920089590E080E062
:1008A00008952091D1053091D20528173907B9F460
:1008B0009091CF058091D005981789F0E091CF05F0
:1008C000F0E0EF50FB4F80812091CF0530E02F5FAB
:1008D0003F4F2F7333272093CF0590E008958FEF7C
:1008E0009FEF089590E080E008950895CF93DF93FF
:1008F00080919E0590919F058F5D934F2091A0055B
:100900003091A1058217930709F048C0C0918A056C
:10091000D0918B0561E089E00E94590380918000AD
:10092000806880938000A091EF04B091F0049E0154
:100930000E94D31F2AE096958795779567952A950B
:10094000D1F770938900609388008091EE048061F4
:1009500080938100C0918005D091810561E08AE09B
:100960000E94590380918000806280938000A09152
:10097000EF04B091F0049E010E94D31F3AE09695D7
:100980008795779567953A95D1F770938B0060932B
:100990008A008091EE04806180938100DF91CF9185
:1009A0000895FB0101900020E9F73197AF01461B44
:1009B000570BDC01ED91FC910280F381E02D09944D
:1009C0008F929F92AF92BF92EF92FF920F931F93DD
:1009D000CF93DF93CDB7DEB7A1970FB6F894DEBF04
:1009E0000FBECDBF7C01FA01CB0119A2223008F461
:1009F0002AE08E010F5D1F4F822E912CB12CA12C6D
:100A0000BF01A50194010E94B11FF901CA016A301A
:100A10000CF5605DD8016E938D01232B242B252BC3
:100A200079F790E080E0109721F0BD01C7010E94A6
:100A3000D104A1960FB6F894DEBF0FBECDBFDF91F3
:100A4000CF911F910F91FF90EF90BF90AF909F902B
:100A50008F900895695CDECFCF92DF92EF92FF9284
:100A60000F931F93CF93DF936B01770FEE08FF086F
:100A7000F7FE1FC0EC01E881F9810190F081E02DC3
:100A80006DE209958C0144275527BA014C195D097F
:100A90006E097F092AE0CE010E94E004800F911FB9
:100AA000DF91CF911F910F91FF90EF90DF90CF904A
:100AB00008952AE0B701A601DF91CF911F910F9110
:100AC000FF90EF90DF90CF900C94E004AB0170E0CA
:100AD00060E02AE00C94E00466E371E00C94D10439
:100AE0000F931F93CF93DF93EC012AE00E94E00461
:100AF0008C01CE010E946C05800F911FDF91CF9178
:100B00001F910F9108950F931F93CF93DF93EC01E3
:100B10000E94D1048C01CE010E946C05800F911FB0
:100B2000DF91CF911F910F9108950C94D1040C94F3
:100B30003A1F0C94321F0F931F93CF9380E1809341
:100B400081001092800081E08093EE0420EA3FE073
:100B50003093F0042093EF043093870020938600B5
:100B600091E19093810026E734E0309301012093D6
:100B7000000180936F0060E08DE00E94590361E006
:100B80008CE00E94590360E082E00E94590360E01B
:100B900083E00E94590360E084E00E94590360E012
:100BA00085E00E94590361E086E00E94590361E0FC
:100BB00087E00E94590361E088E00E94590361E0E8
:100BC00089E00E94590361E08AE00E94590361E0D4
:100BD0008BE00E94590390E080E00E949905C82FA5
:100BE00090E090933B0580933A0581E090E00E946D
:100BF000990590E0909307018093060182E090E0D0
:100C00000E94990590E090937B0580937A0583E09C
:100C100090E00E94990590E09093ED048093EC049D
:100C200084E090E00E94990590E09093EB0480931B
:100C3000EA0485E090E00E94990590E09093E90431
:100C40008093E80486E090E00E94990590E09093FC
:100C5000E7048093E60487E090E00E94990590E025
:100C60009093E5048093E40488E090E00E94990565
:100C700090E09093E3048093E20489E090E00E9486
:100C8000990590E090939505809394058AE090E013
:100C90000E94990590E090938905809388058BE0E8
:100CA00090E00E94990590E09093CA058093C90551
:100CB0008CE090E00E94990590E09093A6068093C6
:100CC000A5068DE090E00E94990590E09093A20621
:100CD0008093A1068EE090E00E94990590E09093A9
:100CE0009E0680939D068FE090E00E94990590E01B
:100CF00090939A068093990680E190E00E9499056E
:100D000090E0909396068093950681E190E00E9492
:100D1000990590E0909392068093910682E190E08D
:100D20000E94990590E09093A3058093A20583E12A
:100D300090E00E94990590E090939305809392052E
:100D4000C150C43058F081E090E090933B0580930F
:100D50003A0561E090E080E00E94970580910601ED
:100D6000909107010197029748F081E090E09093FD
:100D700007018093060161E00E94970580917A0542
:100D800090917B050197029748F082E090E0909364
:100D90007B0580937A0562E00E949705A091EC04A0
:100DA000B091ED0420EA36E841E050E00E94721F65
:100DB000E091EA04F091EB0420E137E2E29FA00128
:100DC000E39F500DF29F500D11248A01550F220B05
:100DD000330BDC01CB01800F911FA21FB31F609169
:100DE000E8047091E90428EE33E0629FA001639F5C
:100DF000500D729F500D1124052E000C660B770BC1
:100E0000840F951FA61FB71F2091E6043091E704B9
:100E100064E6629FA001639F500D1124052E000C13
:100E2000660B770B840F951FA61FB71F2091E40454
:100E30003091E5046AE0629FA001639F500D112488
:100E4000052E000C660B770B840F951FA61FB71F8E
:100E50004091E2045091E304052E000C660B770BE1
:100E6000840F951FA61FB71F8093360590933705F3
:100E7000A0933805B093390580919405909195051C
:100E8000029758F081E090E0909395058093940547
:100E900061E089E090E00E9497058091880590913B
:100EA0008905029758F081E090E09093890580933E
:100EB000880561E08AE090E00E9497058091C9056D
:100EC0009091CA05892B59F481E090E09093CA056E
:100ED0008093C90561E08BE090E00E9497058091C6
:100EE000A5069091A606892B29F461E08CE090E09C
:100EF0000E9497058091A1069091A206892B29F462
:100F000061E08DE090E00E94970580919D069091B0
:100F10009E06892B29F461E08EE090E00E949705FF
:100F20008091990690919A06892B29F461E08FE0CF
:100F300090E00E9497058091950690919606892BE6
:100F400029F461E080E190E00E949705809191068C
:100F500090919206892B29F461E081E190E00E9452
:100F600097058091920590919305892B29F46EE164
:100F700081E190E00E9497058091A2059091A305E0
:100F8000029748F01092A3051092A20560E082E05B
:100F900090E00E94970583E00E940203892B21F4D0
:100FA00061E083E00E94590380913A0590913B05EE
:100FB0008230910509F4BCC20CF0A2C2019709F479
:100FC000AAC28091060190910701019781F40E94C5
:100FD000DF1D2DE538E040E050E00E94481F6953D6
:100FE000784F8F4F9F4F70939F0560939E05809120
:100FF0007A0590917B05019709F016C183E00E9464
:101000000203019709F0D7C060E875E280E090E044
:101010000E94FB0080E796E00E946C0569E371E0A6
:1010200080E796E00E94950580E796E00E946C05B7
:1010300064E471E080E796E00E94950580E796E021
:101040000E946C0561E571E080E796E00E949505DD
:1010500040913605509137056091380570913905FA
:101060002AE080E796E00E94E00480E796E00E9494
:101070006C0580E796E00E946C0562E671E080E70F
:1010800096E00E94950580E796E00E946C056DEA67
:1010900071E080E796E00E94950580E796E00E9467
:1010A0006C0563EE71E080E796E00E94950580E7AD
:1010B00096E00E946C056DE172E080E796E00E9488
:1010C000950580E796E00E946C0580E796E00E9417
:1010D0006C056CE472E080E796E00E94950580E77D
:1010E00096E00E946C0564E872E080E796E00E945A
:1010F000950580E796E00E946C0562EC72E080E75F
:1011000096E00E94950580E796E00E946C056DEDE3
:1011100072E080E796E00E94950580E796E00E94E5
:101120006C0566E073E080E796E00E94950580E735
:1011300096E00E946C0568E273E080E796E00E940A
:10114000950580E796E00E946C0580E796E00E9496
:101150006C056FE573E080E796E00E94950580E7F7
:1011600096E00E946C0580E796E00E946C05409135
:10117000DE045091DF046091E0047091E10480E7A7
:1011800096E00E94700580910601909107010197F9
:1011900031F463E873E080E796E00E948305809174
:1011A000060190910701029731F464E973E080E74A
:1011B00096E00E9483056091DE047091DF048091C7
:1011C000E0049091E1040E948D0083ED95E00E947F
:1011D0006C0569E371E083ED95E00E94950583ED70
:1011E00095E00E946C0564E471E083ED95E00E9457
:1011F000950583ED95E00E946C0561E571E083ED56
:1012000095E00E9495054091360550913705609113
:101210003805709139052AE083ED95E00E94E004DD
:1012200083ED95E00E946C0580917A0590917B0595
:10123000029709F016C183E00E940203019709F0AA
:10124000D7C060E875E280E090E00E948D0083EDF9
:1012500095E00E946C0569E371E083ED95E00E94E2
:10126000950583ED95E00E946C0564E471E083EDE3
:1012700095E00E94950583ED95E00E946C0561E57F
:1012800071E083ED95E00E949505409136055091FF
:10129000370560913805709139052AE083ED95E0B6
:1012A0000E94E00483ED95E00E946C0583ED95E0DB
:1012B0000E946C0562E671E083ED95E00E94950561
:1012C00083ED95E00E946C0567EA73E083ED95E09D
:1012D0000E94950583ED95E00E946C0563EE71E038
:1012E00083ED95E00E94950583ED95E00E946C05E5
:1012F0006EED73E083ED95E00E94950583ED95E03A
:101300000E946C0583ED95E00E946C056CE472E030
:1013100083ED95E00E94950583ED95E00E946C05B4
:1013200064E872E083ED95E00E94950583ED95E019
:101330000E946C0562EC72E083ED95E00E949505D9
:1013400083ED95E00E946C056DED72E083ED95E014
:101350000E94950583ED95E00E946C0566E073E0C0
:1013600083ED95E00E94950583ED95E00E946C0564
:1013700068E273E083ED95E00E94950583ED95E0CA
:101380000E946C0583ED95E00E946C056FE573E0AB
:1013900083ED95E00E94950583ED95E00E946C0534
:1013A00083ED95E00E946C054091DE045091DF04CE
:1013B0006091E0047091E10483ED95E00E94700576
:1013C0008091060190910701019731F463E873E081
:1013D00083ED95E00E9483058091060190910701BD
:1013E000029731F464E973E083ED95E00E94830590
:1013F0006091DE047091DF048091E0049091E1043B
:101400000E94FB0080E796E00E946C0569E371E0B2
:1014100080E796E00E94950580E796E00E946C05C3
:1014200064E471E080E796E00E94950580E796E02D
:101430000E946C0561E571E080E796E00E949505E9
:101440004091360550913705609138057091390506
:101450002AE080E796E00E94E00480E796E00E94A0
:101460006C0583E00E940203892B61F461E083E054
:101470000E94590361E083E00E942B0360E083E057
:101480000E942B0361E086E00E942B0361E087E06D
:101490000E942B0361E088E00E942B0361E08BE057
:1014A0000E942B0385EC91E090930301809302014D
:1014B00080916900836080936900E89A1092C80562
:1014C0001092C7051092C6051092CB051092CC055C
:1014D0001092CD051092CE051092960510929705A8
:1014E000109298051092990510929A0510929B05FA
:1014F00010929C0510929D05CF911F910F91089518
:1015000083309105D1F0049709F05BCD80E092EC37
:10151000A1E0B0E004C080E09BE4A0E0B0E08093F4
:10152000DE049093DF04A093E004B093E10449CD7E
:1015300080E096E9A0E0B0E0F2CF80E091EEA0E09C
:10154000B0E0EDCF1F920F920FB60F9211242F93A0
:101550003F934F935F936F937F938F939F93AF933B
:10156000BF93EF93FF9383ED95E00E944A02FF91B2
:10157000EF91BF91AF919F918F917F916F915F910B
:101580004F913F912F910F900FBE0F901F90189584
:101590001F920F920FB60F9211242F938F939F9348
:1015A000EF93FF93E091E305F091E4058081E091F2
:1015B000E905F091EA0582FD1BC090818091EC0560
:1015C0008F5F8F732091ED05821741F0E091EC055C
:1015D000F0E0ED52FA4F958F8093EC05FF91EF917B
:1015E0009F918F912F910F900FBE0F901F90189584
:1015F0008081F4CF1F920F920FB60F9211242F9378
:101600003F938F939F93AF93BF9380917C0590916D
:101610007D05A0917E05B0917F053091310523E0D5
:10162000230F2D3758F50196A11DB11D20933105CB
:1016300080937C0590937D05A0937E05B0937F05F4
:101640008091320590913305A0913405B091350514
:101650000196A11DB11D8093320590933305A0938F
:101660003405B0933505BF91AF919F918F913F9114
:101670002F910F900FBE0F901F90189526E8230F03
:101680000296A11DB11DD2CF1F920F920FB60F92DD
:1016900011242F933F934F935F936F937F938F9377
:1016A0009F93AF93BF93EF93FF93E0910401F09169
:1016B00005010995FF91EF91BF91AF919F918F9196
:1016C0007F916F915F914F913F912F910F900FBE3E
:1016D0000F901F9018951F920F920FB60F92112422
:1016E0002F933F934F935F936F937F938F939F932A
:1016F000AF93BF93EF93FF93E0910201F091030149
:101700000995FF91EF91BF91AF919F918F917F913B
:101710006F915F914F913F912F910F900FBE0F905E
:101720001F9018951F920F920FB60F9211242F93AE
:101730003F934F935F936F937F938F939F93AF9359
:10174000BF93EF93FF93E091D105F091D2053097CD
:1017500049F0A685B7858585968D91FF14C09C912B
:101760008923A1F4FF91EF91BF91AF919F918F9148
:101770007F916F915F914F913F912F910F900FBE8D
:101780000F901F9018959C91892361F7A389B489C4
:101790009C918589809589238C9386899789019767
:1017A000F1F7608D718DA685B785558538E020E00D
:1017B000CB010197F1F7822F90E095958795282F1F
:1017C0004C91452309F02068315091F7868D81FDB9
:1017D00020958091D00590E001968F7399273091E4
:1017E000CF05381799F0A091D005B0E0AF50BB4FAE
:1017F0002C938093D005828D938D0197F1F7A38967
:10180000B4898C919589892B8C93ACCF868D81601E
:10181000868FF1CF1F920F920FB60F9211242F9344
:101820003F934F935F936F937F938F939F93AF9368
:10183000BF93EF93FF93E0910001F09101010995AF
:10184000FF91EF91BF91AF919F918F917F916F9198
:101850005F914F913F912F910F900FBE0F901F906E
:1018600018951092D6051092D50588EE93E0A0E069
:10187000B0E08093D7059093D805A093D905B09395
:10188000DA0586E191E09093D4058093D30585EC49
:1018900090E09093E0058093DF0584EC90E09093D6
:1018A000E2058093E10580EC90E09093E40580935D
:1018B000E30581EC90E09093E6058093E50582ECEA
:1018C00090E09093E8058093E70586EC90E0909394
:1018D000EA058093E9051092EC051092ED0510924F
:1018E000EE051092EF050E949F036093AD06709382
:1018F000AE068093AF069093B0061092A8061092A1
:10190000A7061092AA061092A9061092AC06109291
:10191000AB0661E070E090E080E00E94DF2100977C
:10192000E9F09093A8068093A7061092AA06109259
:10193000A9062091AB063091AC06232B11F4FC01D3
:1019400010821092AC061092AB0668E371E08091B1
:10195000A7069091A8060E94A52214C08091A70610
:101960009091A806009711F00E9456211092A806A7
:101970001092A7061092AC061092AB061092AA061F
:101980001092A9068091A5069091A6069093A406B0
:101990008093A3068091A1069091A2069093A00641
:1019A00080939F0680919D0690919E0690939C0641
:1019B00080939B068091990690919A069093980641
:1019C0008093970680919506909196069093940641
:1019D0008093930680919106909192069093900641
:1019E00080938F06109273061092720688EE93E031
:1019F000A0E0B0E08093740690937506A0937606FD
:101A0000B093770688E291E0909371068093700618
:101A10001092870610928606109289061092880608
:101A200010928B0610928A0610928D0610928C06E8
:101A300060918E066E7F6D7F60938E0666956170F5
:101A400081E068278CE00E942B0361E08CE00E941B
:101A50005903EAEBF0E0E491E0938006E6EAF0E077
:101A6000E491F0E0EE0FFF1FE057FF4F8591949156
:101A7000909382068093810660E08DE00E94590376
:101A800080918E0681FD04C061E08DE00E942B03F1
:101A90008DE080937C06EBEBF0E0E491E0937D0633
:101AA000E7EAF0E0E491F0E0EE0FFF1FEA57FF4FA6
:101AB0008591949190937F0680937E060895CF93AD
:101AC000DF93CDB7DEB728970FB6F894DEBF0FBE11
:101AD000CDBF789484B5826084BD84B5816084BDB7
:101AE00085B5826085BD85B5816085BD80916E00BC
:101AF000816080936E0010928100809181008260ED
:101B00008093810080918100816080938100809129
:101B100080008160809380008091B1008460809318
:101B2000B1008091B00081608093B00080917A0014
:101B3000846080937A0080917A00826080937A003A
:101B400080917A00816080937A0080917A00806829
:101B500080937A001092C1000E949B05F8EE6F2ED0
:101B6000F3E07F2E64E6562E7AE0472E222423945B
:101B7000312C0E949F030091CB051091CC05209140
:101B8000CD053091CE05601B710B820B930B603439
:101B900072448F40910508F458C061E083E00E94D0
:101BA0002B03E8982BEC31E03093030120930201E2
:101BB0002091C9053091CA0550E040E067E27DEC14
:101BC00082EA93E00E94481F69017A010E949F0304
:101BD0008090C80589820091CB051091CC05209199
:101BE000CD053091CE054B015C01801A910AA20A05
:101BF000B30AA5019401C701B6010E94B11FB980C3
:101C0000AB2CB12CA29EC001A39E900DB29E900D54
:101C100011249093C7058093C6050E949F0360938B
:101C2000CB057093CC058093CD059093CE05109293
:101C3000C80505EC11E010930301009302018091A7
:101C40006900836080936900E89A1091C40500914F
:101C5000C505812F902FB3010E94852090E080E080
:101C60000E94371E6093C0057093C1058093C20522
:101C70009093C3058091BE059091BF05B3010E946A
:101C8000852090E080E00E94371E6093BA05709333
:101C9000BB058093BC059093BD058091B8059091DC
:101CA000B905B3010E94852090E080E00E94371EB4
:101CB0006093B4057093B5058093B6059093B7050E
:101CC0008091B2059091B305B3010E94852090E008
:101CD00080E00E94371E6093AE057093AF0580933D
:101CE000B0059093B1058091AC059091AD05B3011D
:101CF0000E94852090E080E00E94371E6093A80536
:101D00007093A9058093AA059093AB056093A405F1
:101D10007093A5058093A6059093A70583E00E9484
:101D20000203019709F040C080907A0590907B05EE
:101D30009A828982940121303105B1F480E796E0DE
:101D40000E945104813609F416C30CF018C2833383
:101D500009F4D8C20CF0FFC1803309F4B3C20CF00F
:101D6000E6C18A3209F4EBC380907A0590907B0536
:101D70009A828982840102301105B1F483ED95E0E5
:101D80000E940802813609F442C50CF048C483332E
:101D900009F408C50CF02FC4803309F4E5C40CF035
:101DA00016C48A3209F417C68091A2059091A30542
:101DB000009709F04FC6E0905A05F0905B05570177
:101DC000AA0CBB1C85010D55194F1A83098300917C
:101DD0005C0510915D05E981FA8120813181021B4A
:101DE000130B8EE00E948A03E981FA81918380833C
:101DF000080F191F10935D0500935C052091A5063F
:101E00003091A606C7010196B9010E9499209093CE
:101E10005B0580935A05C801B9010E9499207A8315
:101E200069837093590560935805E0905405F090CC
:101E300055054701880C991C84010156194F1E83D2
:101E40000D830091560510915705ED81FE8120818B
:101E50003181021B130B8FE00E948A03ED81FE810A
:101E600091838083080F191F10935705009356051F
:101E70002091A1063091A206C7010196B9010E94E6
:101E800099209093550580935405C801B9010E948B
:101E900099207E836D837093530560935205E09083
:101EA0004E05F0904F054701880C991C840105569A
:101EB000194F18870F830091500510915105EF813C
:101EC000F88520813181021B130B80E10E948A0377
:101ED000EF81F88591838083080F191F10935105B6
:101EE0000093500520919D0630919E06C7010196F2
:101EF000B9010E94992090934F0580934E05C80127
:101F0000B9010E9499204B0170934D0560934C05D7
:101F1000E0904805F09049055701AA0CBB1C8501CB
:101F20000956194F18870F8300914A0510914B05E8
:101F3000EF81F88520813181021B130B81E10E9422
:101F40008A03EF81F88591838083080F191F10930E
:101F50004B0500934A052091990630919A06C701D6
:101F60000196B9010E9499209093490580934805F4
:101F7000C801B9010E9499205B01709347056093E5
:101F80004605009142051091430518870F83C8014B
:101F9000880F991F9C012D56394F790100914405F6
:101FA00010914505F90120813181021B130B82E15B
:101FB0000E948A03F70191838083080F191F1093F1
:101FC00045050093440520919506309196068F8132
:101FD00098850196B9010E949920909343058093BA
:101FE0004205C801B9010E9499206B017093410517
:101FF0006093400500913C0510913D0518870F83C3
:10200000000F111F0157194FE0903E05F0903F055A
:10201000F80120813181E21AF30A83E10E948A03E8
:10202000F80191838083E80EF91EF0923F05E0925B
:102030003E0520919106309192068F8198850196F8
:10204000B9010E94992090933D0580933C05098138
:102050001A8110936F0500936E050D811E811093F8
:102060006D0500936C0590926B0580926A05B092A5
:102070006905A0926805D0926705C0926605C70100
:10208000B9010E949920709365056093640584E00E
:102090000E940203909363058093620585E00E948D
:1020A000020390936105809360058091C60590912D
:1020B000C70590935F0580935E050E949F03009182
:1020C000AD061091AE062091AF063091B006601BB0
:1020D000710B820B930B693E73408105910508F0EB
:1020E000C8C58091A0059091A105892B09F4C1C5AF
:1020F00080917A0590917B05019709F0F8C41982C7
:102100008091A0059091A105E981E150E93008F0A6
:10211000CFC4F0E0E257FF4E0C94AD209615A91500
:10212000B815C715D615E515ED15FC150B16813339
:1021300009F4DAC0823309F017CE6AE174E080E76F
:1021400096E00E94830583E090E090933B058093A6
:102150003A0563E0C4C0853309F4F3C00CF4E0C071
:10216000883309F4F7C0893309F0FECD82E090E0AE
:1021700090937B0580937A0566E172E0F3C0863622
:1021800009F4C1C1BCF4833609F49FC10CF473C1D6
:10219000843609F4ACC1853609F0E6CD3092890564
:1021A0002092880561E08AE090E00E94970567E54B
:1021B00074E098C1843709F4F0C10CF068C0873628
:1021C00009F4ADC1883609F0CFCD60E090E080E041
:1021D0000E94970560E081E090E00E94970560E032
:1021E00082E090E00E94970560E083E090E00E942A
:1021F000970560E084E090E00E94970560E085E04C
:1022000090E00E94970560E086E090E00E949705CC
:1022100060E087E090E00E94970560E088E090E051
:102220000E94970560E089E090E00E94970560E0D9
:102230008AE090E00E94970560E08BE090E00E94C9
:10224000970560E08CE090E00E94970560E08DE0EB
:1022500090E00E94970560E08EE090E00E94970574
:1022600060E08FE090E00E94970560E080E190E000
:102270000E94970560E081E190E00E94970560E090
:1022800082E190E00E9497056DEC74E02BC18537E8
:1022900009F48FC1873709F067CD812F902F64E64D
:1022A00070E00E94852083E190E00E949705609194
:1022B000C4057091C50580E796E00E94660569ED4A
:1022C00074E010C16EE074E080E796E00E94830540
:1022D00089809A8090923B0580923A0561E090E077
:1022E00080E00E94970540CD64E174E080E796E0CD
:1022F0000E94830582E090E090933B0580933A052D
:1023000062E0EDCF66EA71E080E796E00E94830527
:1023100084E090E090933B0580933A0564E0DFCF42
:10232000A980BA80B0920701A092060163E873E029
:1023300080E796E00E9483056091060181E090E0CD
:10234000D0CF82E090E0909307018093060164E98A
:1023500073E0EECF09811A8110937B0500937A0513
:1023600060E274E080E796E00E94830560917A0560
:1023700082E090E0B6CF612F83E090E00E94970565
:102380006091BE0584E090E00E9497056091B805D9
:1023900085E090E00E9497056091B20586E090E0AC
:1023A0000E9497056091AC0587E090E00E94970538
:1023B0006091780588E090E00E949705A091C4059F
:1023C000B091C50520EA36E841E050E00E94671F61
:1023D0002091BE053091BF05E0E1F7E22E9FA001FC
:1023E0002F9F500D3E9F500D11244B015C01840E18
:1023F000951EA11CB11CB501A4012091B805309116
:10240000B905269DC001279D900D369D900D112484
:10241000480F591F611D711D2091B2053091B30500
:10242000529EC001539E900D1124480F591F611DEB
:10243000711D2091AC053091AD05429EC001439EB7
:10244000900D1124480F591F611D711D8091780551
:1024500090917905480F591F611D711D40933605F4
:1024600050933705609338057093390580E796E0FF
:102470000E94700579CC60E083E090E00E949705AF
:1024800060E084E090E00E94970560E085E090E0E5
:102490000E94970560E086E090E00E94970560E06A
:1024A00087E090E00E94970560E088E090E00E945D
:1024B0009705109236051092370510923805109244
:1024C000390540E050E0BA01D1CFA980BA80B0927E
:1024D0009505A092940561E089E090E00E9497053F
:1024E00064E274E080E796E00E9483053DCC1092A0
:1024F00095051092940560E089E090E00E949705B0
:102500006DE374E0EFCF109289051092880560E0CA
:102510008AE090E00E94970566E774E0E3CF612FC0
:102520008BE090E00E9497056091C4057091C5050D
:1025300080E796E00E94660566E974E0D3CF612FDC
:102540008CE090E00E9497056091BE058DE090E0E0
:102550000E9497056091B8058EE090E00E94970573
:102560006091B2058FE090E00E9497056091AC0504
:1025700080E190E00E9497056091780581E190E00C
:102580000E9497056091C4057091C50580E796E0AB
:102590000E94660560EA74E0A5CF1092A305109230
:1025A000A20560E082E190E00E94970560EB74E094
:1025B00099CF09811A811093A3050093A20561E0C8
:1025C00082E190E00E9497056EEB74E08BCF81333F
:1025D00009F4DAC0823309F0E7CB6AE174E083EDF5
:1025E00095E00E94830583E090E090933B05809303
:1025F0003A0563E0C4C0853309F4F1C00CF4E0C0CF
:10260000883309F4F5C0893309F0CECB09811A81EA
:1026100010937B0500937A0566E172E0EFC0863681
:1026200009F4BCC1BCF4833609F49CC10CF470C13C
:10263000843609F4A7C1853609F0B6CB30928905F6
:102640002092880561E08AE090E00E94970567E5A6
:1026500074E093C1843709F4E5C10CF068C0873693
:1026600009F4A8C1883609F09FCB60E090E080E0D3
:102670000E94970560E081E090E00E94970560E08D
:1026800082E090E00E94970560E083E090E00E9485
:10269000970560E084E090E00E94970560E085E0A7
:1026A00090E00E94970560E086E090E00E94970528
:1026B00060E087E090E00E94970560E088E090E0AD
:1026C0000E94970560E089E090E00E94970560E035
:1026D0008AE090E00E94970560E08BE090E00E9425
:1026E000970560E08CE090E00E94970560E08DE047
:1026F00090E00E94970560E08EE090E00E949705D0
:1027000060E08FE090E00E94970560E080E190E05B
:102710000E94970560E081E190E00E94970560E0EB
:1027200082E190E00E9497056DEC74E026C1853748
:1027300009F484C1873709F037CB8091C4059091A3
:10274000C50564E670E00E94852083E190E00E9468
:1027500097056091C4057091C50583ED95E00E94D1
:10276000660569ED74E009C16EE074E083ED95E003
:102770000E94830530923B0520923A0561E090E08B
:1027800080E00E94970510CB64E174E083ED95E052
:102790000E94830589809A8090923B0580923A0539
:1027A00062E0EDCF66EA71E083ED95E00E9483057B
:1027B00084E090E090933B0580933A0564E0DFCF9E
:1027C000309207012092060163E873E083ED95E003
:1027D0000E9483056091060181E090E0D2CFA9803C
:1027E000BA80B0920701A092060164E973E0EECFCF
:1027F00030927B0520927A0560E274E083ED95E0EB
:102800000E94830560917A0582E090E0BACF6091E2
:10281000C40583E090E00E9497056091BE0584E0C6
:1028200090E00E9497056091B80585E090E00E94D5
:1028300097056091B20586E090E00E94970560914F
:10284000AC0587E090E00E9497056091780588E0EC
:1028500090E00E949705A091C405B091C50520EABB
:1028600036E841E050E00E94671F2091BE0530919C
:10287000BF05E0E1F7E22E9FA0012F9F500D3E9F84
:10288000500D11244B015C01840E951EA11CB11C3E
:10289000B501A4012091B8053091B905269DC0016C
:1028A000279D900D369D900D1124480F591F611DD5
:1028B000711D2091B2053091B305529EC001539E07
:1028C000900D1124480F591F611D711D2091AC05F9
:1028D0003091AD05429EC001439E900D1124480FDA
:1028E000591F611D711D8091780590917905480FE0
:1028F000591F611D711D4093360550933705609334
:1029000038057093390583ED95E00E9470054CCA37
:1029100060E083E090E00E94970560E084E090E052
:102920000E94970560E085E090E00E94970560E0D6
:1029300086E090E00E94970560E087E090E00E94CA
:10294000970560E088E090E00E94970510923605B8
:1029500010923705109238051092390540E050E08A
:10296000BA01D1CF309295052092940561E089E0BB
:1029700090E00E94970564E274E083ED95E00E9488
:10298000830512CA109295051092940560E089E0C3
:1029900090E00E9497056DE374E0EFCF10928905F7
:1029A0001092880560E08AE090E00E94970566E753
:1029B00074E0E3CF6091C4058BE090E00E9497053E
:1029C0006091C4057091C50583ED95E00E94660590
:1029D00066E974E0D2CF6091C4058CE090E00E947B
:1029E00097056091BE058DE090E00E94970560918B
:1029F000B8058EE090E00E9497056091B2058FE0E7
:102A000090E00E9497056091AC0580E190E00E9403
:102A100097056091780581E190E00E94970560EA52
:102A200074E0ABCF1092A3051092A20560E082E1A2
:102A300090E00E94970560EB74E09FCF3092A30571
:102A40002092A20561E082E190E00E9497056EEB82
:102A500074E093CF019709F030CB8EE00E948A0397
:102A600090936F0580936E058FE00E948A03909388
:102A70006D0580936C0580E10E948A0390936B053D
:102A800080936A0581E10E948A039093690580938F
:102A9000680582E10E948A0390936705809366052A
:102AA00083E10E948A039093650580936405EFCAD1
:102AB00020919E0530919F052F5D334F60916E05EB
:102AC00070916F052817390709F43EC060E671E080
:102AD00083ED95E00E94950509810F5F09830A3017
:102AE00009F00ECB6DE083ED95E00E946C028091C1
:102AF0007A0590917B05029709F0BBC019828091FD
:102B0000A0059091A105E981E150E93008F092C05B
:102B1000F0E0E357FA4E0C94AD20B71ACA1AD91A4E
:102B2000E81AF71A061B0E1B1D1B2C1B20919E0575
:102B300030919F052F5D334F60916C0570916D054D
:102B40002817390709F0C2CF83ED95E00E942C05C4
:102B5000BDCF20919E0530919F052F5D334F609131
:102B60006A0570916B052817390709F0AFCFECCFD4
:102B700020919E0530919F052F5D334F6091680530
:102B8000709169052817390709F0A0CFDDCF209192
:102B90009E0530919F052F5D334F609166057091C2
:102BA00067052817390709F091CFCECF20919E05F0
:102BB00030919F052F5D334F6091640570916505DD
:102BC0002817390709F082CFBFCF60919E05709119
:102BD0009F05892B09F47ACFB7CF20919E053091BC
:102BE0009F052F5D334F6091620570916305281733
:102BF000390709F06BCFA8CF20919E0530919F0532
:102C00002F5D334F6091600570916105281739077A
:102C100009F05CCF99CF20919E0530919F052F5DE3
:102C2000334F2817390709F051CF60915E05709135
:102C30005F058ACF20919E0530919F052F5D334F10
:102C400060916E0570916F052817390709F49DC4CE
:102C500060E671E080E796E00E94950519811F5FAC
:102C600019831A3009F04BCF6DE080E796E00E949F
:102C7000DD0380917A0590917B058130910509F003
:102C8000FAC483ED95E00E942A02889709F029C2D0
:102C900083ED95E00E9408027C0183ED95E00E949F
:102CA00008028C0183ED95E00E9408029A838983D3
:102CB00083ED95E00E94080220E3E21AF108E69C09
:102CC0009001E79C300DF69C300D1124C097820FC7
:102CD000931F00531109509E9001519E300D1124F5
:102CE000280F391F09811A8100531109409EC00124
:102CF000419E900D1124280F391F30939105209388
:102D0000900583ED95E00E9408027C0183ED95E03B
:102D10000E9408028C0183ED95E00E9408029A83CC
:102D2000898383ED95E00E94080220E3E21AF1080E
:102D3000E69C9001E79C300DF69C300D1124C09765
:102D4000820F931F00531109509E9001519E300D28
:102D50001124280F391F09811A8100531109409E3F
:102D6000C001419E900D1124280F391F3093870513
:102D70002093860583ED95E00E9408027C0183ED97
:102D800095E00E9408028C0183ED95E00E94080204
:102D90009A83898383ED95E00E94080220E3E21A7A
:102DA000F108E69C9001E79C300DF69C300D112453
:102DB000C097820F931F00531109509E9001519E9E
:102DC000300D1124280F391F09811A810053110970
:102DD000409EC001419E900D1124280F391F309351
:102DE000A1052093A00583ED95E00E9408027C01D7
:102DF00083ED95E00E9408028C0183ED95E00E942E
:102E000008029A83898383ED95E00E94080220E3FB
:102E1000E21AF108E69C9001E79C300DF69C300D1B
:102E20001124C097820F931F00531109509E9001E7
:102E3000519E300D1124280F391F09811A8100532A
:102E40001109409EC001419E900D1124280F391F89
:102E50003093C5052093C40583ED95E00E940802D8
:102E60007C0183ED95E00E9408028C0183ED95E0E2
:102E70000E9408029A83898383ED95E00E940802EC
:102E800020E3E21AF108E69C9001E79C300DF69CE5
:102E9000300D1124C097820F931F00531109509ECB
:102EA0009001519E300D1124280F391F09811A817C
:102EB00000531109409EC001419E900D1124280F1E
:102EC000391F3093BF052093BE0583ED95E00E9426
:102ED00008027C0183ED95E00E9408028C0183EDDD
:102EE00095E00E9408029A83898383ED95E00E9411
:102EF000080220E3E21AF108E69C9001E79C300DFD
:102F0000F69C300D1124C097820F931F00531109B6
:102F1000509E9001519E300D1124280F391F0981B8
:102F20001A8100531109409EC001419E900D112449
:102F3000280F391F3093B9052093B80583ED95E02C
:102F40000E9408027C0183ED95E00E9408028C013A
:102F500083ED95E00E9408029A83898383ED95E0D2
:102F60000E94080220E3E21AF108E69C9001E79C27
:102F7000300DF69C300D1124C097820F931F005323
:102F80001109509E9001519E300D1124280F391FB8
:102F900009811A8100531109409EC001419E900D84
:102FA0001124280F391F3093B3052093B20583ED08
:102FB00095E00E9408027C0183ED95E00E940802E2
:102FC0008C0183ED95E00E9408029A83898383ED4A
:102FD00095E00E94080220E3E21AF108E69C9001C5
:102FE000E79C300DF69C300D1124C097820F931F83
:102FF00000531109509E9001519E300D1124280F4D
:10300000391F09811A8100531109409EC001419E58
:10301000900D1124280F391F3093AD052093AC0576
:1030200083ED95E00E9408027C0183ED95E00E940B
:1030300008028C0183ED95E00E9408029A8389833F
:1030400083ED95E00E94080220E3E21AF108E69C75
:103050009001E79C300DF69C300D1124C097820F33
:10306000931F00531109509E9001519E300D112461
:10307000280F391F09811A8100531109409EC00190
:10308000419E900D1124280F391F3093790520930C
:10309000780583ED95E00E940802C097909377052C
:1030A0008093760583ED95E00E940802C097909387
:1030B00075058093740583ED95E00E940802C09722
:1030C000909373058093720583ED95E00E9408024A
:1030D000C097909371058093700583ED95E00E94F1
:1030E000080280919E0590919F058F5D934F2091DE
:1030F000A0053091A1058217930709F04FC0C09039
:103100007605D090770511E0C116D10421F460E076
:1031100086E00E942B03E0907405F090750521E095
:10312000E216F10421F460E087E00E942B03009195
:103130007205109173050130110521F460E088E0FB
:103140000E942B0380907005909071059A8289826D
:1031500094012130310521F460E08BE00E942B03C3
:10316000CD2821F461E086E00E942B03EF2821F4B2
:1031700061E087E00E942B03012B21F461E088E0ED
:103180000E942B0389809A80892821F461E08BE0DA
:103190000E942B0361E083E00E942B030E949F03A7
:1031A0000091AD061091AE062091AF063091B006A9
:1031B000601B710B820B930B6035734C810591057D
:1031C00070F00E949F036093AD067093AE068093EB
:1031D000AF069093B00660E083E00E942B032FB708
:1031E000F89480917C0590917D05A0917E05B09129
:1031F0007F052FBF40919A0550919B0560919C05DA
:1032000070919D05841B950BA60BB70B88389341D5
:10321000A105B10548F1809106019091070102973F
:1032200019F50E94DF1D2DE538E040E050E00E94D6
:10323000481F6953784F8F4F9F4F70939F0560933E
:103240009E052FB7F89480917C0590917D05A09103
:103250007E05B0917F052FBF80939A0590939B05C3
:10326000A0939C05B0939D052FB7F89480917C05A1
:1032700090917D05A0917E05B0917F052FBF409173
:103280009605509197056091980570919905841B5A
:10329000950BA60BB70B80399140A105B10508F439
:1032A0003AC18091940590919505019709F096C0D7
:1032B0008091920590919305589ED001599EB00D32
:1032C000112420919005309191050E94B3202FEF99
:1032D00033E040E050E00E94481F8091C605909185
:1032E000C705281B390BB901330F880B990B0E94B6
:1032F000391E6B017C0120918C0530918D05409128
:103300008E0550918F050E94E31F4B015C01809256
:103310008C0590928D05A0928E05B0928F0520911C
:10332000C0053091C1054091C2055091C305C70148
:10333000B6010E94741E69837A838B839C832091DB
:10334000BA053091BB054091BC055091BD05C50142
:10335000B4010E94741E9B01AC0169817A818B814A
:103360009C810E94E31F4B015C01A701960160E074
:1033700070E0CB010E94E21F2091B4053091B505A9
:103380004091B6055091B7050E94741E9B01AC0197
:10339000C501B4010E94E31F6B017C0160918A05A5
:1033A00070918B05072E000C880B990B0E94391E1B
:1033B0009B01AC01C701B6010E94E31F0E944F2090
:1033C000611534E0730714F06FEF73E077FF02C00C
:1033D00070E060E070938B0560938A0580918805AA
:1033E00090918905019709F083C08090860590909F
:1033F000870583E10E948A03881A990AB40190E044
:1034000080E00E94371E6B017C0120918205309183
:10341000830540918405509185050E94E31F4B016F
:103420005C018092820590928305A0928405B092FF
:1034300085052091AE053091AF054091B0055091C2
:10344000B105C701B6010E94741E69837A838B831C
:103450009C832091A8053091A9054091AA0550911F
:10346000AB05C501B4010E94741E9B01AC016981CA
:103470007A818B819C810E94E31F4B015C01A70133
:10348000960160E070E0CB010E94E21F2091A4054C
:103490003091A5054091A6055091A7050E94741E84
:1034A0009B01AC01C501B4010E94E31F6B017C01CB
:1034B0006091800570918105072E000C880B990B97
:1034C0000E94391E9B01AC01C701B6010E94E31F97
:1034D0000E944F20611504E0700714F06FEF73E055
:1034E00077FF02C070E060E0709381056093800513
:1034F0002FB7F89480917C0590917D05A0917E0571
:10350000B0917F052FBF8093960590939705A09368
:103510009805B09399058091940590919505892B14
:1035200041F4809190059091910590938B05809343
:103530008A058091880590918905892B41F48091B5
:10354000860590918705909381058093800520E002
:1035500030E0232B11F40C94B90D0E94360288231D
:1035600011F40C94B20D0E9400000C94AE0D209149
:103570009E0530919F052F5D334F60916C057091D2
:103580006D052817390709F063CB80E796E00E94A4
:103590002C055ECB20919E0530919F052F5D334F0A
:1035A00060916A0570916B052817390709F050CBB7
:1035B000ECCF20919E0530919F052F5D334F609198
:1035C0006805709169052817390709F041CBDDCFEF
:1035D00020919E0530919F052F5D334F60916605C8
:1035E000709167052817390709F032CBCECF2091AB
:1035F0009E0530919F052F5D334F6091640570915A
:1036000065052817390709F023CBBFCF60919E05C8
:1036100070919F05892B09F41BCBB7CF20919E0594
:1036200030919F052F5D334F609162057091630566
:103630002817390709F00CCBA8CF20919E053091AF
:103640009F052F5D334F60916005709161052817CC
:10365000390709F0FDCA99CF20919E0530919F0549
:103660002F5D334F2817390709F0F2CA60915E05C4
:1036700070915F058ACF029709F033CD80E796E01D
:103680000E943904889709F02CCD80E796E00E94CB
:1036900051047C0180E796E00E9451048C0180E790
:1036A00096E00E9451049A83898380E796E00E9405
:1036B000510420E3E21AF108E69C9001E79C300DEA
:1036C000F69C300D1124C097820F931F00531109EF
:1036D000509E9001519E300D1124280F391F0981F1
:1036E0001A8100531109409EC001419E900D112482
:1036F000280F391F309391052093900580E796E0BD
:103700000E9451047C0180E796E00E9451048C01E4
:1037100080E796E00E9451049A83898380E796E0CF
:103720000E94510420E3E21AF108E69C9001E79C14
:10373000300DF69C300D1124C097820F931F00535B
:103740001109509E9001519E300D1124280F391FF0
:1037500009811A8100531109409EC001419E900DBC
:103760001124280F391F309387052093860580E7A1
:1037700096E00E9451047C0180E796E00E9451048B
:103780008C0180E796E00E9451049A83898380E748
:1037900096E00E94510420E3E21AF108E69C9001B1
:1037A000E79C300DF69C300D1124C097820F931FBB
:1037B00000531109509E9001519E300D1124280F85
:1037C000391F09811A8100531109409EC001419E91
:1037D000900D1124280F391F3093A1052093A005C7
:1037E00080E796E00E9451047C0180E796E00E9409
:1037F00051048C0180E796E00E9451049A838983EA
:1038000080E796E00E94510420E3E21AF108E69C6A
:103810009001E79C300DF69C300D1124C097820F6B
:10382000931F00531109509E9001519E300D112499
:10383000280F391F09811A8100531109409EC001C8
:10384000419E900D1124280F391F3093C5052093F8
:10385000C40580E796E00E9451047C0180E796E071
:103860000E9451048C0180E796E00E9451049A83E3
:10387000898380E796E00E94510420E3E21AF10870
:10388000E69C9001E79C300DF69C300D1124C0970A
:10389000820F931F00531109509E9001519E300DCD
:1038A0001124280F391F09811A8100531109409EE4
:1038B000C001419E900D1124280F391F3093BF0580
:1038C0002093BE0580E796E00E9451047C0180E7CA
:1038D00096E00E9451048C0180E796E00E9451041A
:1038E0009A83898380E796E00E94510420E3E21ADC
:1038F000F108E69C9001E79C300DF69C300D1124F8
:10390000C097820F931F00531109509E9001519E42
:10391000300D1124280F391F09811A810053110914
:10392000409EC001419E900D1124280F391F3093F5
:10393000B9052093B80580E796E00E9451047C0108
:1039400080E796E00E9451048C0180E796E00E9497
:1039500051049A83898380E796E00E94510420E312
:10396000E21AF108E69C9001E79C300DF69C300DC0
:103970001124C097820F931F00531109509E90018C
:10398000519E300D1124280F391F09811A810053CF
:103990001109409EC001419E900D1124280F391F2E
:1039A0003093B3052093B20580E796E00E9451045E
:1039B0007C0180E796E00E9451048C0180E796E04C
:1039C0000E9451049A83898380E796E00E94510403
:1039D00020E3E21AF108E69C9001E79C300DF69C8A
:1039E000300D1124C097820F931F00531109509E70
:1039F0009001519E300D1124280F391F09811A8121
:103A000000531109409EC001419E900D1124280FC2
:103A1000391F3093AD052093AC0580E796E00E94F6
:103A200051047C0180E796E00E9451048C0180E7FC
:103A300096E00E9451049A83898380E796E00E9471
:103A4000510420E3E21AF108E69C9001E79C300D56
:103A5000F69C300D1124C097820F931F005311095B
:103A6000509E9001519E300D1124280F391F09815D
:103A70001A8100531109409EC001419E900D1124EE
:103A8000280F391F309379052093780580E796E059
:103A90000E945104C097909377058093760580E744
:103AA00096E00E945104C097909375058093740529
:103AB00080E796E00E945104C0979093730580932D
:103AC000720580E796E00E945104C09790937105BB
:103AD0008093700580E796E00E94510402CB88E253
:103AE00091E090937106809370068091D10590913A
:103AF000D2058057964071F4E0918306F0918406D8
:103B00009081809185068095892380831092D205CB
:103B10001092D1058091A7069091A806009711F008
:103B20000C94562108958F929F92AF92BF92CF929C
:103B3000DF92EF92FF92CF93DF93EC01688179815E
:103B40008A819B81611571058105910521F464E2EB
:103B500079ED8BE597E02DE133EF41E050E00E94F5
:103B6000481F49015A019B01AC01A7EAB1E40E9438
:103B7000671F6B017C01ACEEB4EFA50194010E94BC
:103B8000751FC60ED71EE81EF91EF7FE06C081E09F
:103B9000C81AD108E10880E8F80AC882D982EA8206
:103BA000FB82C701B6019F77DF91CF91FF90EF9025
:103BB000DF90CF90BF90AF909F908F9008958F929D
:103BC0009F92AF92BF92CF92DF92EF92FF9260915D
:103BD00008017091090180910A0190910B01611512
:103BE00071058105910521F464E279ED8BE597E09B
:103BF0002DE133EF41E050E00E94481F49015A0196
:103C00009B01AC01A7EAB1E40E94671F6B017C0134
:103C1000ACEEB4EFA50194010E94751FC60ED71E2D
:103C2000E81EF91EF7FE06C081E0C81AD108E108B7
:103C300080E8F80AC0920801D0920901E0920A01D6
:103C4000F0920B01C701B6019F77FF90EF90DF90D4
:103C5000CF90BF90AF909F908F9008956093080190
:103C60007093090180930A0190930B010895E894E1
:103C700009C097FB3EF490958095709561957F4FB4
:103C80008F4F9F4F9923A9F0F92F96E9BB27939562
:103C9000F695879577956795B795F111F8CFFAF472
:103CA000BB0F11F460FF1BC06F5F7F4F8F4F9F4FA3
:103CB00016C0882311F096E911C0772321F09EE801
:103CC000872F762F05C0662371F096E8862F70E067
:103CD00060E02AF09A95660F771F881FDAF7880F41
:103CE0009695879597F908950E94871E0C94F81E63
:103CF0000E94EA1E38F00E94F11E20F0952311F078
:103D00000C94E11E0C94E71E11240C942C1F0E94AD
:103D1000091F70F3959FC1F3950F50E0551F629FE7
:103D2000F001729FBB27F00DB11D639FAA27F00D14
:103D3000B11DAA1F649F6627B00DA11D661F829F3B
:103D40002227B00DA11D621F739FB00DA11D621F20
:103D5000839FA00D611D221F749F3327A00D611D3D
:103D6000231F849F600D211D822F762F6A2F11241F
:103D70009F5750409AF0F1F088234AF0EE0FFF1F52
:103D8000BB1F661F771F881F91505040A9F79E3FA9
:103D9000510580F00C94E11E0C942C1F5F3FE4F35E
:103DA000983ED4F3869577956795B795F795E795FF
:103DB0009F5FC1F7FE2B880F911D9695879597F908
:103DC000089597F99F6780E870E060E008959FEF9D
:103DD00080EC089500240A941616170618060906A2
:103DE000089500240A941216130614060506089571
:103DF000092E0394000C11F4882352F0BB0F40F4F9
:103E0000BF2B11F460FF04C06F5F7F4F8F4F9F4F38
:103E1000089557FD9058440F551F59F05F3F71F0BA
:103E20004795880F97FB991F61F09F3F79F0879521
:103E30000895121613061406551FF2CF4695F1DFAA
:103E400008C0161617061806991FF1CF869571053A
:103E5000610508940895E894BB2766277727CB016E
:103E600097F90895F999FECF92BD81BDF89A9927E7
:103E700080B50895262FF999FECF1FBA92BD81BD56
:103E800020BD0FB6F894FA9AF99A0FBE01960895DC
:103E9000052E97FB1EF400940E945F1F57FD07D06C
:103EA0000E94B11F07FC03D04EF40C945F1F509585
:103EB0004095309521953F4F4F4F5F4F0895909516
:103EC0008095709561957F4F8F4F9F4F08950E9409
:103ED000D31FA59F900DB49F900DA49F800D911DA1
:103EE00011240895B7FF0C94671F0E94671F821B5F
:103EF000930B08952F923F924F925F926F927F9211
:103F00008F929F92AF92BF92CF92DF92EF92FF92E9
:103F10000F931F93CF93DF93CDB7DEB7CA1BDB0B95
:103F20000FB6F894DEBF0FBECDBF09942A8839883A
:103F300048885F846E847D848C849B84AA84B98441
:103F4000C884DF80EE80FD800C811B81AA81B9814D
:103F5000CE0FD11D0FB6F894DEBF0FBECDBFED0161
:103F60000895A1E21A2EAA1BBB1BFD010DC0AA1FBA
:103F7000BB1FEE1FFF1FA217B307E407F50720F0D2
:103F8000A21BB30BE40BF50B661F771F881F991F4D
:103F90001A9469F760957095809590959B01AC0196
:103FA000BD01CF010895A29FB001B39FC001A39F9F
:103FB000700D811D1124911DB29F700D811D112462
:103FC000911D08955058BB27AA270E94FA1F0C94F0
:103FD000F81E0E94EA1E38F00E94F11E20F039F40B
:103FE0009F3F19F426F40C94E71E0EF4E095E7FBCE
:103FF0000C94E11EE92F0E94091F58F3BA176207BB
:1040000073078407950720F079F4A6F50C942B1F0D
:104010000EF4E0950B2EBA2FA02D0B01B9019001E3
:104020000C01CA01A0011124FF27591B99F0593F27
:1040300050F4503E68F11A16F040A22F232F342F6F
:104040004427585FF3CF469537952795A795F040BD
:104050005395C9F77EF41F16BA0B620B730B840BD2
:10406000BAF09150A1F0FF0FBB1F661F771F881F8A
:10407000C2F70EC0BA0F621F731F841F48F48795E2
:1040800077956795B795F7959E3F08F0B0CF9395D4
:10409000880F08F09927EE0F9795879508950E944D
:1040A00056206894B1110C942C1F08950E94111F82
:1040B00088F09F5798F0B92F9927B751B0F0E1F0E9
:1040C000660F771F881F991F1AF0BA95C9F714C099
:1040D000B13091F00E942B1FB1E008950C942B1F7A
:1040E000672F782F8827B85F39F0B93FCCF38695D2
:1040F00077956795B395D9F73EF49095809570952F
:1041000061957F4F8F4F9F4F0895AA1BBB1B51E1B5
:1041100007C0AA1FBB1FA617B70710F0A61BB70B37
:10412000881F991F5A95A9F780959095BC01CD01DC
:10413000089597FB072E16F4009407D077FD09D059
:104140000E94852007FC05D03EF4909581959F4FF5
:104150000895709561957F4F0895EE0FFF1F0590AC
:10416000F491E02D09940E94D31FB7FF0895821B9C
:10417000930B08950F931F93CF93DF938230910594
:1041800010F482E090E0E091B306F091B40630E0E4
:1041900020E0B0E0A0E0309799F42115310509F452
:1041A0004AC0281B390B24303105D8F58A819B8100
:1041B0006115710589F1FB0193838283FE0111C0B2
:1041C000408151810281138148175907E0F0481757
:1041D000590799F4109761F012960C931297139661
:1041E0001C933296CF01DF91CF911F910F910895CB
:1041F0000093B3061093B406F4CF2115310551F0A6
:104200004217530738F0A901DB019A01BD01DF0114
:10421000F801C1CFEF01F9CF9093B4068093B306B4
:10422000CDCFFE01E20FF31F81939193225031090C
:1042300039832883D7CF2091B1063091B206232B42
:1042400041F420910E0130910F013093B20620937A
:10425000B10620910C0130910D012115310541F479
:104260002DB73EB74091100150911101241B350B21
:10427000E091B106F091B206E217F307A0F42E1B0D
:104280003F0B2817390778F0AC014E5F5F4F2417BA
:10429000350748F04E0F5F1F5093B2064093B106AA
:1042A000819391939FCFF0E0E0E09CCFCF93DF9399
:1042B0000097E9F0FC01329713821282A091B306B5
:1042C000B091B406ED0130E020E01097A1F4208118
:1042D0003181820F931F2091B1063091B2062817C9
:1042E000390709F061C0F093B206E093B106DF919F
:1042F000CF910895EA01CE17DF07E8F54A815B8187
:104300009E0141155105B1F7E901FB83EA8349910B
:104310005991C40FD51FEC17FD0761F4808191817D
:104320000296840F951FE901998388838281938186
:104330009B838A83F0E0E0E012968D919C91139725
:104340000097B9F52D913C911197CD010296820FFE
:10435000931F2091B1063091B2062817390739F61C
:10436000309751F51092B4061092B306B093B2068E
:10437000A093B106BCCFD383C28340815181840F07
:10438000951FC817D90761F44E5F5F4F88819981E7
:10439000480F591F518340838A819B819383828375
:1043A0002115310509F0B0CFF093B406E093B306C0
:1043B0009ECFFD01DC01C0CF13821282D7CFB0E0C7
:1043C000A0E0E5EEF1E20C947C1F8C01009751F423
:1043D000CB010E94BA208C01C801CDB7DEB7E0E165
:1043E0000C94981FFC01E60FF71F9C012250310925
:1043F000E217F30708F49DC0D901CD91DC91119724
:10440000C617D70798F0C530D10530F3CE01049711
:104410008617970708F3C61BD70B2297C193D19332
:104420006D937C93CF010E945621D6CF5B01AC1ACD
:10443000BD0A4C018C0E9D1EA091B306B091B4062E
:10444000512C412CF12CE12C109731F58091B106C3
:104450009091B2068815990509F05CC0461657067A
:1044600008F058C080910C0190910D01009741F423
:104470008DB79EB74091100150911101841B950B8F
:10448000E817F90708F055C0F093B206E093B106BB
:10449000F90171836083A0CF8D919C911197129641
:1044A0006C90129713967C901397A815B90559F53F
:1044B0006C0142E0C40ED11CCA14DB0420F1AC0133
:1044C0004A195B09DA011296159780F062827382AD
:1044D00051834083D9016D937C93E114F10471F011
:1044E000D7011396FC93EE93129776CF22968C0FFA
:1044F0009D1FF90191838083F301EFCFF093B40600
:10450000E093B30669CF4816590608F42C017D01E3
:10451000D3019ACFCB010E94BA207C01009749F0C9
:10452000AE01B8010E949C22C8010E945621870159
:1045300053CF10E000E050CFFB01DC0102C001903E
:104540000D9241505040D8F70895FB01DC010190D5
:104550000D920020E1F7089510E0C2E6D0E004C01B
:10456000FE010E94AD202196C336D107C9F7F89409
:10457000FFCF7504CB01CB0101000100000000005A
:10458000B5068000000000006C02CC01F901B90200
:104590002A0208021C0200000000DD03CC017204A4
:1045A000DC0339045104C4030D0A00534420506C49
:1045B0006F747465720056657273696F6E20312E68
:1045C00030300053455249414C204E554D424552E2
:1045D000203D20004368616E67652062617564203C
:1045E000726174652E2030202D3E203139323030FA
:1045F00020202F2F202031202D3E20333834303002
:10460000202F2F2032202D3E2035373630302020ED
:104610002F2F2033202D3E203131353230300043D2
:1046200068616E67652068616E647368616B6520A0
:104630006D6F64652E2034202D3E205374617469A3
:104640006320202F2F202035202D3E2056617269B7
:1046500061626C65004368616E6765206D61696EBB
:1046600020706F727420636F6D6D756E6963617415
:10467000696F6E2E2038202D3E2055534220202F6A
:104680002F202039202D3E2053657269616C004334
:1046900068616E67652073657269616C206E756D07
:1046A0006265722E2061202D3E20456E7465722059
:1046B0002F2F2062202D3E20436C656172004675CD
:1046C0006E6374696F6E20737065656420636F6ECE
:1046D00074726F6C205049442E2063202D3E20457B
:1046E0006E61626C65202F2F2064202D3E2044696E
:1046F0007361626C650046756E6374696F6E2074D9
:10470000656D706572617475726520636F6E747229
:104710006F6C205049442E2065202D3E20456E614F
:10472000626C65202F2F2066202D3E204469736126
:10473000626C65004368616E6765204D6178205248
:10474000504D2E2077202D3E20456E74657200431B
:1047500068616E676520656E636F64657220636F64
:10476000756E74206E756D626572732E2067202DD4
:104770003E20456E746572004368616E6765207304
:104780006D6F6F7468696E6720726174652E202A80
:10479000202D3E20456E746572004368616E67652A
:1047A0002066756E6374696F6E20736D6F6F7468C9
:1047B000696E672E2074202D3E20456E61626C6507
:1047C000202F2F2075202D3E2044697361626C6577
:1047D0000053657420706172616D65746572732039
:1047E0003D20302E202068202D3E20436C656172D4
:1047F00020616C6C005374617469632068616E643D
:104800007368616B65005661726961626C652068EE
:10481000616E647368616B65004368616E676520F3
:1048200068616E647368616B65206D6F6465202ECE
:104830002034202D3E2053746174696320202F2F73
:10484000202035202D3E205661726961626C650022
:104850004368616E67652073657269616C206E756F
:104860006D6265722E2061202D3E20456E7465724A
:1048700020202F2F2062202D3E20436C6561720086
:10488000313932303000333834303000353736305B
:10489000300055534200456E61626C65207370654F
:1048A000656420636F6E74726F6C205049440044DD
:1048B000697361626C6520737065656420636F6EF7
:1048C00074726F6C2050494400456E61626C6520C3
:1048D00074656D706572617475726520636F6E7456
:1048E000726F6C205049440044697361626C6520AA
:1048F00074656D706572617475726520636F6E7436
:10490000726F6C20504944002070756C7365287379
:104910002900204368616E67652077656967687460
:104920007300456E61626C6520736D6F6F74680013
:1049300044697361626C6520736D6F6F74680044C5
:10494000617461206572617365640052504D0000AE
:107E0000112484B714BE81FFF0D085E080938100F7
:107E100082E08093C00088E18093C10086E0809377
:107E2000C20080E18093C4008EE0C9D0259A86E02C
:107E300020E33CEF91E0309385002093840096BBD3
:107E4000B09BFECF1D9AA8958150A9F7CC24DD24C4
:107E500088248394B5E0AB2EA1E19A2EF3E0BF2EE7
:107E6000A2D0813461F49FD0082FAFD0023811F036
:107E7000013811F484E001C083E08DD089C08234E0
:107E800011F484E103C0853419F485E0A6D080C0E4
:107E9000853579F488D0E82EFF2485D0082F10E0AE
:107EA000102F00270E291F29000F111F8ED06801E7
:107EB0006FC0863521F484E090D080E0DECF843638
:107EC00009F040C070D06FD0082F6DD080E0C81688
:107ED00080E7D80618F4F601B7BEE895C0E0D1E017
:107EE00062D089930C17E1F7F0E0CF16F0E7DF06D8
:107EF00018F0F601B7BEE89568D007B600FCFDCFD4
:107F0000A601A0E0B1E02C9130E011968C91119780
:107F100090E0982F8827822B932B1296FA010C0160
:107F200087BEE89511244E5F5F4FF1E0A038BF0790
:107F300051F7F601A7BEE89507B600FCFDCF97BE46
:107F4000E89526C08437B1F42ED02DD0F82E2BD052
:107F50003CD0F601EF2C8F010F5F1F4F84911BD097
:107F6000EA94F801C1F70894C11CD11CFA94CF0C13
:107F7000D11C0EC0853739F428D08EE10CD085E9AC
:107F80000AD08FE07ACF813511F488E018D01DD067
:107F900080E101D065CF982F8091C00085FFFCCF94
:107FA0009093C60008958091C00087FFFCCF809118
:107FB000C00084FD01C0A8958091C6000895E0E648
:107FC000F0E098E1908380830895EDDF803219F02E
:107FD00088E0F5DFFFCF84E1DECF1F93182FE3DFCA
:107FE0001150E9F7F2DF1F91089580E0E8DFEE27F6
:047FF000FF270994CA
:027FFE00040479
:00000001FF
